{
	"RockPaperScissors_game.sol": {
		"RockPaperScissors": {
			"abi": [
				{
					"inputs": [
						{
							"internalType": "address payable",
							"name": "in_player_1",
							"type": "address"
						},
						{
							"internalType": "address payable",
							"name": "in_player_2",
							"type": "address"
						},
						{
							"internalType": "uint256",
							"name": "time_span",
							"type": "uint256"
						}
					],
					"stateMutability": "payable",
					"type": "constructor"
				},
				{
					"inputs": [],
					"name": "P",
					"outputs": [
						{
							"internalType": "uint256",
							"name": "",
							"type": "uint256"
						}
					],
					"stateMutability": "view",
					"type": "function"
				},
				{
					"inputs": [],
					"name": "R",
					"outputs": [
						{
							"internalType": "uint256",
							"name": "",
							"type": "uint256"
						}
					],
					"stateMutability": "view",
					"type": "function"
				},
				{
					"inputs": [],
					"name": "S",
					"outputs": [
						{
							"internalType": "uint256",
							"name": "",
							"type": "uint256"
						}
					],
					"stateMutability": "view",
					"type": "function"
				},
				{
					"inputs": [],
					"name": "bindEnd",
					"outputs": [
						{
							"internalType": "uint256",
							"name": "",
							"type": "uint256"
						}
					],
					"stateMutability": "view",
					"type": "function"
				},
				{
					"inputs": [],
					"name": "manager",
					"outputs": [
						{
							"internalType": "address payable",
							"name": "",
							"type": "address"
						}
					],
					"stateMutability": "view",
					"type": "function"
				},
				{
					"inputs": [],
					"name": "player_1",
					"outputs": [
						{
							"internalType": "address payable",
							"name": "",
							"type": "address"
						}
					],
					"stateMutability": "view",
					"type": "function"
				},
				{
					"inputs": [],
					"name": "player_2",
					"outputs": [
						{
							"internalType": "address payable",
							"name": "",
							"type": "address"
						}
					],
					"stateMutability": "view",
					"type": "function"
				},
				{
					"inputs": [],
					"name": "retrieveReward",
					"outputs": [],
					"stateMutability": "nonpayable",
					"type": "function"
				},
				{
					"inputs": [
						{
							"internalType": "uint256",
							"name": "a",
							"type": "uint256"
						},
						{
							"internalType": "bytes32",
							"name": "secret",
							"type": "bytes32"
						}
					],
					"name": "revealAction",
					"outputs": [],
					"stateMutability": "nonpayable",
					"type": "function"
				},
				{
					"inputs": [],
					"name": "revealEnd",
					"outputs": [
						{
							"internalType": "uint256",
							"name": "",
							"type": "uint256"
						}
					],
					"stateMutability": "view",
					"type": "function"
				},
				{
					"inputs": [],
					"name": "reveal_phase",
					"outputs": [
						{
							"internalType": "bool",
							"name": "",
							"type": "bool"
						}
					],
					"stateMutability": "view",
					"type": "function"
				},
				{
					"inputs": [],
					"name": "revealed_1",
					"outputs": [
						{
							"internalType": "bool",
							"name": "",
							"type": "bool"
						}
					],
					"stateMutability": "view",
					"type": "function"
				},
				{
					"inputs": [],
					"name": "revealed_2",
					"outputs": [
						{
							"internalType": "bool",
							"name": "",
							"type": "bool"
						}
					],
					"stateMutability": "view",
					"type": "function"
				},
				{
					"inputs": [],
					"name": "reward",
					"outputs": [
						{
							"internalType": "uint256",
							"name": "",
							"type": "uint256"
						}
					],
					"stateMutability": "view",
					"type": "function"
				},
				{
					"inputs": [
						{
							"internalType": "bytes32",
							"name": "hiddenAction",
							"type": "bytes32"
						}
					],
					"name": "sendAction",
					"outputs": [],
					"stateMutability": "nonpayable",
					"type": "function"
				},
				{
					"inputs": [],
					"name": "sent_1",
					"outputs": [
						{
							"internalType": "bool",
							"name": "",
							"type": "bool"
						}
					],
					"stateMutability": "view",
					"type": "function"
				},
				{
					"inputs": [],
					"name": "sent_2",
					"outputs": [
						{
							"internalType": "bool",
							"name": "",
							"type": "bool"
						}
					],
					"stateMutability": "view",
					"type": "function"
				},
				{
					"inputs": [
						{
							"internalType": "uint256",
							"name": "a",
							"type": "uint256"
						},
						{
							"internalType": "bytes32",
							"name": "secret",
							"type": "bytes32"
						}
					],
					"name": "test",
					"outputs": [
						{
							"internalType": "bytes32",
							"name": "",
							"type": "bytes32"
						}
					],
					"stateMutability": "pure",
					"type": "function"
				},
				{
					"inputs": [],
					"name": "withdraw",
					"outputs": [],
					"stateMutability": "nonpayable",
					"type": "function"
				},
				{
					"inputs": [],
					"name": "withdrawEnd",
					"outputs": [
						{
							"internalType": "uint256",
							"name": "",
							"type": "uint256"
						}
					],
					"stateMutability": "view",
					"type": "function"
				}
			],
			"devdoc": {
				"kind": "dev",
				"methods": {},
				"version": 1
			},
			"evm": {
				"assembly": "    /* \"RockPaperScissors_game.sol\":69:7807  contract RockPaperScissors {... */\n  mstore(0x40, 0x80)\n    /* \"RockPaperScissors_game.sol\":2949:3486  constructor(... */\n  mload(0x40)\n  sub(codesize, bytecodeSize)\n  dup1\n  bytecodeSize\n  dup4\n  codecopy\n  dup2\n  dup2\n  add\n  0x40\n  mstore\n  dup2\n  add\n  swap1\n  tag_1\n  swap2\n  swap1\n  tag_2\n  jump\t// in\ntag_1:\n    /* \"RockPaperScissors_game.sol\":3109:3119  msg.sender */\n  caller\n    /* \"RockPaperScissors_game.sol\":3091:3098  manager */\n  0x03\n  0x00\n    /* \"RockPaperScissors_game.sol\":3091:3120  manager = payable(msg.sender) */\n  0x0100\n  exp\n  dup2\n  sload\n  dup2\n  0xffffffffffffffffffffffffffffffffffffffff\n  mul\n  not\n  and\n  swap1\n  dup4\n  0xffffffffffffffffffffffffffffffffffffffff\n  and\n  mul\n  or\n  swap1\n  sstore\n  pop\n    /* \"RockPaperScissors_game.sol\":3142:3151  msg.value */\n  callvalue\n    /* \"RockPaperScissors_game.sol\":3131:3137  reward */\n  0x04\n    /* \"RockPaperScissors_game.sol\":3131:3151  reward   = msg.value */\n  dup2\n  swap1\n  sstore\n  pop\n    /* \"RockPaperScissors_game.sol\":3173:3184  in_player_1 */\n  dup3\n    /* \"RockPaperScissors_game.sol\":3162:3170  player_1 */\n  0x05\n  0x00\n    /* \"RockPaperScissors_game.sol\":3162:3184  player_1 = in_player_1 */\n  0x0100\n  exp\n  dup2\n  sload\n  dup2\n  0xffffffffffffffffffffffffffffffffffffffff\n  mul\n  not\n  and\n  swap1\n  dup4\n  0xffffffffffffffffffffffffffffffffffffffff\n  and\n  mul\n  or\n  swap1\n  sstore\n  pop\n    /* \"RockPaperScissors_game.sol\":3206:3217  in_player_2 */\n  dup2\n    /* \"RockPaperScissors_game.sol\":3195:3203  player_2 */\n  0x08\n  0x02\n    /* \"RockPaperScissors_game.sol\":3195:3217  player_2 = in_player_2 */\n  0x0100\n  exp\n  dup2\n  sload\n  dup2\n  0xffffffffffffffffffffffffffffffffffffffff\n  mul\n  not\n  and\n  swap1\n  dup4\n  0xffffffffffffffffffffffffffffffffffffffff\n  and\n  mul\n  or\n  swap1\n  sstore\n  pop\n    /* \"RockPaperScissors_game.sol\":3258:3267  time_span */\n  dup1\n    /* \"RockPaperScissors_game.sol\":3240:3255  block.timestamp */\n  timestamp\n    /* \"RockPaperScissors_game.sol\":3240:3267  block.timestamp + time_span */\n  tag_5\n  swap2\n  swap1\n  tag_6\n  jump\t// in\ntag_5:\n    /* \"RockPaperScissors_game.sol\":3230:3237  bindEnd */\n  0x00\n    /* \"RockPaperScissors_game.sol\":3230:3267  bindEnd = block.timestamp + time_span */\n  dup2\n  swap1\n  sstore\n  pop\n    /* \"RockPaperScissors_game.sol\":3300:3309  time_span */\n  dup1\n    /* \"RockPaperScissors_game.sol\":3290:3297  bindEnd */\n  sload(0x00)\n    /* \"RockPaperScissors_game.sol\":3290:3309  bindEnd + time_span */\n  tag_7\n  swap2\n  swap1\n  tag_6\n  jump\t// in\ntag_7:\n    /* \"RockPaperScissors_game.sol\":3278:3287  revealEnd */\n  0x01\n    /* \"RockPaperScissors_game.sol\":3278:3309  revealEnd = bindEnd + time_span */\n  dup2\n  swap1\n  sstore\n  pop\n    /* \"RockPaperScissors_game.sol\":3346:3355  time_span */\n  dup1\n    /* \"RockPaperScissors_game.sol\":3334:3343  revealEnd */\n  sload(0x01)\n    /* \"RockPaperScissors_game.sol\":3334:3355  revealEnd + time_span */\n  tag_8\n  swap2\n  swap1\n  tag_6\n  jump\t// in\ntag_8:\n    /* \"RockPaperScissors_game.sol\":3320:3331  withdrawEnd */\n  0x02\n    /* \"RockPaperScissors_game.sol\":3320:3355  withdrawEnd = revealEnd + time_span */\n  dup2\n  swap1\n  sstore\n  pop\n    /* \"RockPaperScissors_game.sol\":3383:3388  false */\n  0x00\n    /* \"RockPaperScissors_game.sol\":3368:3380  reveal_phase */\n  0x0b\n  0x02\n    /* \"RockPaperScissors_game.sol\":3368:3388  reveal_phase = false */\n  0x0100\n  exp\n  dup2\n  sload\n  dup2\n  0xff\n  mul\n  not\n  and\n  swap1\n  dup4\n  iszero\n  iszero\n  mul\n  or\n  swap1\n  sstore\n  pop\n    /* \"RockPaperScissors_game.sol\":3408:3413  false */\n  0x00\n    /* \"RockPaperScissors_game.sol\":3399:3405  sent_1 */\n  0x08\n  0x00\n    /* \"RockPaperScissors_game.sol\":3399:3413  sent_1 = false */\n  0x0100\n  exp\n  dup2\n  sload\n  dup2\n  0xff\n  mul\n  not\n  and\n  swap1\n  dup4\n  iszero\n  iszero\n  mul\n  or\n  swap1\n  sstore\n  pop\n    /* \"RockPaperScissors_game.sol\":3424:3429  false */\n  0x00\n    /* \"RockPaperScissors_game.sol\":3415:3421  sent_2 */\n  0x0b\n  0x00\n    /* \"RockPaperScissors_game.sol\":3415:3429  sent_2 = false */\n  0x0100\n  exp\n  dup2\n  sload\n  dup2\n  0xff\n  mul\n  not\n  and\n  swap1\n  dup4\n  iszero\n  iszero\n  mul\n  or\n  swap1\n  sstore\n  pop\n    /* \"RockPaperScissors_game.sol\":3453:3458  false */\n  0x00\n    /* \"RockPaperScissors_game.sol\":3440:3450  revealed_1 */\n  0x08\n  0x01\n    /* \"RockPaperScissors_game.sol\":3440:3458  revealed_1 = false */\n  0x0100\n  exp\n  dup2\n  sload\n  dup2\n  0xff\n  mul\n  not\n  and\n  swap1\n  dup4\n  iszero\n  iszero\n  mul\n  or\n  swap1\n  sstore\n  pop\n    /* \"RockPaperScissors_game.sol\":3473:3478  false */\n  0x00\n    /* \"RockPaperScissors_game.sol\":3460:3470  revealed_2 */\n  0x0b\n  0x01\n    /* \"RockPaperScissors_game.sol\":3460:3478  revealed_2 = false */\n  0x0100\n  exp\n  dup2\n  sload\n  dup2\n  0xff\n  mul\n  not\n  and\n  swap1\n  dup4\n  iszero\n  iszero\n  mul\n  or\n  swap1\n  sstore\n  pop\n    /* \"RockPaperScissors_game.sol\":2949:3486  constructor(... */\n  pop\n  pop\n  pop\n    /* \"RockPaperScissors_game.sol\":69:7807  contract RockPaperScissors {... */\n  jump(tag_9)\n    /* \"#utility.yul\":88:205   */\ntag_11:\n    /* \"#utility.yul\":197:198   */\n  0x00\n    /* \"#utility.yul\":194:195   */\n  dup1\n    /* \"#utility.yul\":187:199   */\n  revert\n    /* \"#utility.yul\":334:460   */\ntag_13:\n    /* \"#utility.yul\":371:378   */\n  0x00\n    /* \"#utility.yul\":411:453   */\n  0xffffffffffffffffffffffffffffffffffffffff\n    /* \"#utility.yul\":404:409   */\n  dup3\n    /* \"#utility.yul\":400:454   */\n  and\n    /* \"#utility.yul\":389:454   */\n  swap1\n  pop\n    /* \"#utility.yul\":334:460   */\n  swap2\n  swap1\n  pop\n  jump\t// out\n    /* \"#utility.yul\":466:570   */\ntag_14:\n    /* \"#utility.yul\":511:518   */\n  0x00\n    /* \"#utility.yul\":540:564   */\n  tag_27\n    /* \"#utility.yul\":558:563   */\n  dup3\n    /* \"#utility.yul\":540:564   */\n  tag_13\n  jump\t// in\ntag_27:\n    /* \"#utility.yul\":529:564   */\n  swap1\n  pop\n    /* \"#utility.yul\":466:570   */\n  swap2\n  swap1\n  pop\n  jump\t// out\n    /* \"#utility.yul\":576:714   */\ntag_15:\n    /* \"#utility.yul\":657:689   */\n  tag_29\n    /* \"#utility.yul\":683:688   */\n  dup2\n    /* \"#utility.yul\":657:689   */\n  tag_14\n  jump\t// in\ntag_29:\n    /* \"#utility.yul\":650:655   */\n  dup2\n    /* \"#utility.yul\":647:690   */\n  eq\n    /* \"#utility.yul\":637:708   */\n  tag_30\n  jumpi\n    /* \"#utility.yul\":704:705   */\n  0x00\n    /* \"#utility.yul\":701:702   */\n  dup1\n    /* \"#utility.yul\":694:706   */\n  revert\n    /* \"#utility.yul\":637:708   */\ntag_30:\n    /* \"#utility.yul\":576:714   */\n  pop\n  jump\t// out\n    /* \"#utility.yul\":720:879   */\ntag_16:\n    /* \"#utility.yul\":785:790   */\n  0x00\n    /* \"#utility.yul\":816:822   */\n  dup2\n    /* \"#utility.yul\":810:823   */\n  mload\n    /* \"#utility.yul\":801:823   */\n  swap1\n  pop\n    /* \"#utility.yul\":832:873   */\n  tag_32\n    /* \"#utility.yul\":867:872   */\n  dup2\n    /* \"#utility.yul\":832:873   */\n  tag_15\n  jump\t// in\ntag_32:\n    /* \"#utility.yul\":720:879   */\n  swap3\n  swap2\n  pop\n  pop\n  jump\t// out\n    /* \"#utility.yul\":885:962   */\ntag_17:\n    /* \"#utility.yul\":922:929   */\n  0x00\n    /* \"#utility.yul\":951:956   */\n  dup2\n    /* \"#utility.yul\":940:956   */\n  swap1\n  pop\n    /* \"#utility.yul\":885:962   */\n  swap2\n  swap1\n  pop\n  jump\t// out\n    /* \"#utility.yul\":968:1090   */\ntag_18:\n    /* \"#utility.yul\":1041:1065   */\n  tag_35\n    /* \"#utility.yul\":1059:1064   */\n  dup2\n    /* \"#utility.yul\":1041:1065   */\n  tag_17\n  jump\t// in\ntag_35:\n    /* \"#utility.yul\":1034:1039   */\n  dup2\n    /* \"#utility.yul\":1031:1066   */\n  eq\n    /* \"#utility.yul\":1021:1084   */\n  tag_36\n  jumpi\n    /* \"#utility.yul\":1080:1081   */\n  0x00\n    /* \"#utility.yul\":1077:1078   */\n  dup1\n    /* \"#utility.yul\":1070:1082   */\n  revert\n    /* \"#utility.yul\":1021:1084   */\ntag_36:\n    /* \"#utility.yul\":968:1090   */\n  pop\n  jump\t// out\n    /* \"#utility.yul\":1096:1239   */\ntag_19:\n    /* \"#utility.yul\":1153:1158   */\n  0x00\n    /* \"#utility.yul\":1184:1190   */\n  dup2\n    /* \"#utility.yul\":1178:1191   */\n  mload\n    /* \"#utility.yul\":1169:1191   */\n  swap1\n  pop\n    /* \"#utility.yul\":1200:1233   */\n  tag_38\n    /* \"#utility.yul\":1227:1232   */\n  dup2\n    /* \"#utility.yul\":1200:1233   */\n  tag_18\n  jump\t// in\ntag_38:\n    /* \"#utility.yul\":1096:1239   */\n  swap3\n  swap2\n  pop\n  pop\n  jump\t// out\n    /* \"#utility.yul\":1245:1940   */\ntag_2:\n    /* \"#utility.yul\":1349:1355   */\n  0x00\n    /* \"#utility.yul\":1357:1363   */\n  dup1\n    /* \"#utility.yul\":1365:1371   */\n  0x00\n    /* \"#utility.yul\":1414:1416   */\n  0x60\n    /* \"#utility.yul\":1402:1411   */\n  dup5\n    /* \"#utility.yul\":1393:1400   */\n  dup7\n    /* \"#utility.yul\":1389:1412   */\n  sub\n    /* \"#utility.yul\":1385:1417   */\n  slt\n    /* \"#utility.yul\":1382:1501   */\n  iszero\n  tag_40\n  jumpi\n    /* \"#utility.yul\":1420:1499   */\n  tag_41\n  tag_11\n  jump\t// in\ntag_41:\n    /* \"#utility.yul\":1382:1501   */\ntag_40:\n    /* \"#utility.yul\":1540:1541   */\n  0x00\n    /* \"#utility.yul\":1565:1637   */\n  tag_42\n    /* \"#utility.yul\":1629:1636   */\n  dup7\n    /* \"#utility.yul\":1620:1626   */\n  dup3\n    /* \"#utility.yul\":1609:1618   */\n  dup8\n    /* \"#utility.yul\":1605:1627   */\n  add\n    /* \"#utility.yul\":1565:1637   */\n  tag_16\n  jump\t// in\ntag_42:\n    /* \"#utility.yul\":1555:1637   */\n  swap4\n  pop\n    /* \"#utility.yul\":1511:1647   */\n  pop\n    /* \"#utility.yul\":1686:1688   */\n  0x20\n    /* \"#utility.yul\":1712:1784   */\n  tag_43\n    /* \"#utility.yul\":1776:1783   */\n  dup7\n    /* \"#utility.yul\":1767:1773   */\n  dup3\n    /* \"#utility.yul\":1756:1765   */\n  dup8\n    /* \"#utility.yul\":1752:1774   */\n  add\n    /* \"#utility.yul\":1712:1784   */\n  tag_16\n  jump\t// in\ntag_43:\n    /* \"#utility.yul\":1702:1784   */\n  swap3\n  pop\n    /* \"#utility.yul\":1657:1794   */\n  pop\n    /* \"#utility.yul\":1833:1835   */\n  0x40\n    /* \"#utility.yul\":1859:1923   */\n  tag_44\n    /* \"#utility.yul\":1915:1922   */\n  dup7\n    /* \"#utility.yul\":1906:1912   */\n  dup3\n    /* \"#utility.yul\":1895:1904   */\n  dup8\n    /* \"#utility.yul\":1891:1913   */\n  add\n    /* \"#utility.yul\":1859:1923   */\n  tag_19\n  jump\t// in\ntag_44:\n    /* \"#utility.yul\":1849:1923   */\n  swap2\n  pop\n    /* \"#utility.yul\":1804:1933   */\n  pop\n    /* \"#utility.yul\":1245:1940   */\n  swap3\n  pop\n  swap3\n  pop\n  swap3\n  jump\t// out\n    /* \"#utility.yul\":1946:2126   */\ntag_20:\n    /* \"#utility.yul\":1994:2071   */\n  0x4e487b7100000000000000000000000000000000000000000000000000000000\n    /* \"#utility.yul\":1991:1992   */\n  0x00\n    /* \"#utility.yul\":1984:2072   */\n  mstore\n    /* \"#utility.yul\":2091:2095   */\n  0x11\n    /* \"#utility.yul\":2088:2089   */\n  0x04\n    /* \"#utility.yul\":2081:2096   */\n  mstore\n    /* \"#utility.yul\":2115:2119   */\n  0x24\n    /* \"#utility.yul\":2112:2113   */\n  0x00\n    /* \"#utility.yul\":2105:2120   */\n  revert\n    /* \"#utility.yul\":2132:2323   */\ntag_6:\n    /* \"#utility.yul\":2172:2175   */\n  0x00\n    /* \"#utility.yul\":2191:2211   */\n  tag_47\n    /* \"#utility.yul\":2209:2210   */\n  dup3\n    /* \"#utility.yul\":2191:2211   */\n  tag_17\n  jump\t// in\ntag_47:\n    /* \"#utility.yul\":2186:2211   */\n  swap2\n  pop\n    /* \"#utility.yul\":2225:2245   */\n  tag_48\n    /* \"#utility.yul\":2243:2244   */\n  dup4\n    /* \"#utility.yul\":2225:2245   */\n  tag_17\n  jump\t// in\ntag_48:\n    /* \"#utility.yul\":2220:2245   */\n  swap3\n  pop\n    /* \"#utility.yul\":2268:2269   */\n  dup3\n    /* \"#utility.yul\":2265:2266   */\n  dup3\n    /* \"#utility.yul\":2261:2270   */\n  add\n    /* \"#utility.yul\":2254:2270   */\n  swap1\n  pop\n    /* \"#utility.yul\":2289:2292   */\n  dup1\n    /* \"#utility.yul\":2286:2287   */\n  dup3\n    /* \"#utility.yul\":2283:2293   */\n  gt\n    /* \"#utility.yul\":2280:2316   */\n  iszero\n  tag_49\n  jumpi\n    /* \"#utility.yul\":2296:2314   */\n  tag_50\n  tag_20\n  jump\t// in\ntag_50:\n    /* \"#utility.yul\":2280:2316   */\ntag_49:\n    /* \"#utility.yul\":2132:2323   */\n  swap3\n  swap2\n  pop\n  pop\n  jump\t// out\n    /* \"RockPaperScissors_game.sol\":69:7807  contract RockPaperScissors {... */\ntag_9:\n  dataSize(sub_0)\n  dup1\n  dataOffset(sub_0)\n  0x00\n  codecopy\n  0x00\n  return\nstop\n\nsub_0: assembly {\n        /* \"RockPaperScissors_game.sol\":69:7807  contract RockPaperScissors {... */\n      mstore(0x40, 0x80)\n      callvalue\n      dup1\n      iszero\n      tag_1\n      jumpi\n      0x00\n      dup1\n      revert\n    tag_1:\n      pop\n      jumpi(tag_2, lt(calldatasize, 0x04))\n      shr(0xe0, calldataload(0x00))\n      dup1\n      0x6b423f38\n      gt\n      tag_23\n      jumpi\n      dup1\n      0xc6e1d48c\n      gt\n      tag_24\n      jumpi\n      dup1\n      0xc6e1d48c\n      eq\n      tag_18\n      jumpi\n      dup1\n      0xd0b9546c\n      eq\n      tag_19\n      jumpi\n      dup1\n      0xd6edbc0f\n      eq\n      tag_20\n      jumpi\n      dup1\n      0xedbbd5c6\n      eq\n      tag_21\n      jumpi\n      dup1\n      0xfba23d2a\n      eq\n      tag_22\n      jumpi\n      jump(tag_2)\n    tag_24:\n      dup1\n      0x6b423f38\n      eq\n      tag_13\n      jumpi\n      dup1\n      0x8b8fbd92\n      eq\n      tag_14\n      jumpi\n      dup1\n      0xa6e66477\n      eq\n      tag_15\n      jumpi\n      dup1\n      0xafbf7f18\n      eq\n      tag_16\n      jumpi\n      dup1\n      0xb1ed37b1\n      eq\n      tag_17\n      jumpi\n      jump(tag_2)\n    tag_23:\n      dup1\n      0x3ccfd60b\n      gt\n      tag_25\n      jumpi\n      dup1\n      0x3ccfd60b\n      eq\n      tag_8\n      jumpi\n      dup1\n      0x481c6a75\n      eq\n      tag_9\n      jumpi\n      dup1\n      0x4980e1be\n      eq\n      tag_10\n      jumpi\n      dup1\n      0x4be1c796\n      eq\n      tag_11\n      jumpi\n      dup1\n      0x614fc508\n      eq\n      tag_12\n      jumpi\n      jump(tag_2)\n    tag_25:\n      dup1\n      0x228cb733\n      eq\n      tag_3\n      jumpi\n      dup1\n      0x23f790ce\n      eq\n      tag_4\n      jumpi\n      dup1\n      0x2a9a8241\n      eq\n      tag_5\n      jumpi\n      dup1\n      0x2c6c0055\n      eq\n      tag_6\n      jumpi\n      dup1\n      0x337ee418\n      eq\n      tag_7\n      jumpi\n    tag_2:\n      0x00\n      dup1\n      revert\n        /* \"RockPaperScissors_game.sol\":1399:1417  uint public reward */\n    tag_3:\n      tag_26\n      tag_27\n      jump\t// in\n    tag_26:\n      mload(0x40)\n      tag_28\n      swap2\n      swap1\n      tag_29\n      jump\t// in\n    tag_28:\n      mload(0x40)\n      dup1\n      swap2\n      sub\n      swap1\n      return\n        /* \"RockPaperScissors_game.sol\":1494:1516  bool public revealed_1 */\n    tag_4:\n      tag_30\n      tag_31\n      jump\t// in\n    tag_30:\n      mload(0x40)\n      tag_32\n      swap2\n      swap1\n      tag_33\n      jump\t// in\n    tag_32:\n      mload(0x40)\n      dup1\n      swap2\n      sub\n      swap1\n      return\n        /* \"RockPaperScissors_game.sol\":4460:5329  function revealAction(uint a, bytes32 secret) external onlyRevealPhase {... */\n    tag_5:\n      tag_34\n      0x04\n      dup1\n      calldatasize\n      sub\n      dup2\n      add\n      swap1\n      tag_35\n      swap2\n      swap1\n      tag_36\n      jump\t// in\n    tag_35:\n      tag_37\n      jump\t// in\n    tag_34:\n      stop\n        /* \"RockPaperScissors_game.sol\":1573:1591  bool public sent_2 */\n    tag_6:\n      tag_38\n      tag_39\n      jump\t// in\n    tag_38:\n      mload(0x40)\n      tag_40\n      swap2\n      swap1\n      tag_33\n      jump\t// in\n    tag_40:\n      mload(0x40)\n      dup1\n      swap2\n      sub\n      swap1\n      return\n        /* \"RockPaperScissors_game.sol\":7665:7798  function test(uint a, bytes32 secret) external pure returns(bytes32) {... */\n    tag_7:\n      tag_41\n      0x04\n      dup1\n      calldatasize\n      sub\n      dup2\n      add\n      swap1\n      tag_42\n      swap2\n      swap1\n      tag_36\n      jump\t// in\n    tag_42:\n      tag_43\n      jump\t// in\n    tag_41:\n      mload(0x40)\n      tag_44\n      swap2\n      swap1\n      tag_45\n      jump\t// in\n    tag_44:\n      mload(0x40)\n      dup1\n      swap2\n      sub\n      swap1\n      return\n        /* \"RockPaperScissors_game.sol\":5452:5968  function withdraw() external onlyAfter(revealEnd) onlyBefore(withdrawEnd) {... */\n    tag_8:\n      tag_46\n      tag_47\n      jump\t// in\n    tag_46:\n      stop\n        /* \"RockPaperScissors_game.sol\":1367:1397  address payable public manager */\n    tag_9:\n      tag_48\n      tag_49\n      jump\t// in\n    tag_48:\n      mload(0x40)\n      tag_50\n      swap2\n      swap1\n      tag_51\n      jump\t// in\n    tag_50:\n      mload(0x40)\n      dup1\n      swap2\n      sub\n      swap1\n      return\n        /* \"RockPaperScissors_game.sol\":1190:1216  uint public constant R = 0 */\n    tag_10:\n      tag_52\n      tag_53\n      jump\t// in\n    tag_52:\n      mload(0x40)\n      tag_54\n      swap2\n      swap1\n      tag_29\n      jump\t// in\n    tag_54:\n      mload(0x40)\n      dup1\n      swap2\n      sub\n      swap1\n      return\n        /* \"RockPaperScissors_game.sol\":1256:1282  uint public constant S = 2 */\n    tag_11:\n      tag_55\n      tag_56\n      jump\t// in\n    tag_55:\n      mload(0x40)\n      tag_57\n      swap2\n      swap1\n      tag_29\n      jump\t// in\n    tag_57:\n      mload(0x40)\n      dup1\n      swap2\n      sub\n      swap1\n      return\n        /* \"RockPaperScissors_game.sol\":1424:1455  address payable public player_1 */\n    tag_12:\n      tag_58\n      tag_59\n      jump\t// in\n    tag_58:\n      mload(0x40)\n      tag_60\n      swap2\n      swap1\n      tag_51\n      jump\t// in\n    tag_60:\n      mload(0x40)\n      dup1\n      swap2\n      sub\n      swap1\n      return\n        /* \"RockPaperScissors_game.sol\":6096:6305  function retrieveReward() external onlyAfter(withdrawEnd) {... */\n    tag_13:\n      tag_61\n      tag_62\n      jump\t// in\n    tag_61:\n      stop\n        /* \"RockPaperScissors_game.sol\":1223:1249  uint public constant P = 1 */\n    tag_14:\n      tag_63\n      tag_64\n      jump\t// in\n    tag_63:\n      mload(0x40)\n      tag_65\n      swap2\n      swap1\n      tag_29\n      jump\t// in\n    tag_65:\n      mload(0x40)\n      dup1\n      swap2\n      sub\n      swap1\n      return\n        /* \"RockPaperScissors_game.sol\":1312:1333  uint public revealEnd */\n    tag_15:\n      tag_66\n      tag_67\n      jump\t// in\n    tag_66:\n      mload(0x40)\n      tag_68\n      swap2\n      swap1\n      tag_29\n      jump\t// in\n    tag_68:\n      mload(0x40)\n      dup1\n      swap2\n      sub\n      swap1\n      return\n        /* \"RockPaperScissors_game.sol\":1474:1492  bool public sent_1 */\n    tag_16:\n      tag_69\n      tag_70\n      jump\t// in\n    tag_69:\n      mload(0x40)\n      tag_71\n      swap2\n      swap1\n      tag_33\n      jump\t// in\n    tag_71:\n      mload(0x40)\n      dup1\n      swap2\n      sub\n      swap1\n      return\n        /* \"RockPaperScissors_game.sol\":1523:1554  address payable public player_2 */\n    tag_17:\n      tag_72\n      tag_73\n      jump\t// in\n    tag_72:\n      mload(0x40)\n      tag_74\n      swap2\n      swap1\n      tag_51\n      jump\t// in\n    tag_74:\n      mload(0x40)\n      dup1\n      swap2\n      sub\n      swap1\n      return\n        /* \"RockPaperScissors_game.sol\":1624:1648  bool public reveal_phase */\n    tag_18:\n      tag_75\n      tag_76\n      jump\t// in\n    tag_75:\n      mload(0x40)\n      tag_77\n      swap2\n      swap1\n      tag_33\n      jump\t// in\n    tag_77:\n      mload(0x40)\n      dup1\n      swap2\n      sub\n      swap1\n      return\n        /* \"RockPaperScissors_game.sol\":1291:1310  uint public bindEnd */\n    tag_19:\n      tag_78\n      tag_79\n      jump\t// in\n    tag_78:\n      mload(0x40)\n      tag_80\n      swap2\n      swap1\n      tag_29\n      jump\t// in\n    tag_80:\n      mload(0x40)\n      dup1\n      swap2\n      sub\n      swap1\n      return\n        /* \"RockPaperScissors_game.sol\":1335:1358  uint public withdrawEnd */\n    tag_20:\n      tag_81\n      tag_82\n      jump\t// in\n    tag_81:\n      mload(0x40)\n      tag_83\n      swap2\n      swap1\n      tag_29\n      jump\t// in\n    tag_83:\n      mload(0x40)\n      dup1\n      swap2\n      sub\n      swap1\n      return\n        /* \"RockPaperScissors_game.sol\":1593:1615  bool public revealed_2 */\n    tag_21:\n      tag_84\n      tag_85\n      jump\t// in\n    tag_84:\n      mload(0x40)\n      tag_86\n      swap2\n      swap1\n      tag_33\n      jump\t// in\n    tag_86:\n      mload(0x40)\n      dup1\n      swap2\n      sub\n      swap1\n      return\n        /* \"RockPaperScissors_game.sol\":3648:4383  function sendAction(bytes32 hiddenAction) external onlyBindPhase {... */\n    tag_22:\n      tag_87\n      0x04\n      dup1\n      calldatasize\n      sub\n      dup2\n      add\n      swap1\n      tag_88\n      swap2\n      swap1\n      tag_89\n      jump\t// in\n    tag_88:\n      tag_90\n      jump\t// in\n    tag_87:\n      stop\n        /* \"RockPaperScissors_game.sol\":1399:1417  uint public reward */\n    tag_27:\n      sload(0x04)\n      dup2\n      jump\t// out\n        /* \"RockPaperScissors_game.sol\":1494:1516  bool public revealed_1 */\n    tag_31:\n      0x08\n      0x01\n      swap1\n      sload\n      swap1\n      0x0100\n      exp\n      swap1\n      div\n      0xff\n      and\n      dup2\n      jump\t// out\n        /* \"RockPaperScissors_game.sol\":4460:5329  function revealAction(uint a, bytes32 secret) external onlyRevealPhase {... */\n    tag_37:\n        /* \"RockPaperScissors_game.sol\":2340:2349  revealEnd */\n      sload(0x01)\n        /* \"RockPaperScissors_game.sol\":2321:2336  block.timestamp */\n      timestamp\n        /* \"RockPaperScissors_game.sol\":2321:2349  block.timestamp <= revealEnd */\n      gt\n      iszero\n        /* \"RockPaperScissors_game.sol\":2321:2397  block.timestamp <= revealEnd && (reveal_phase || block.timestamp >= bindEnd) */\n      dup1\n      iszero\n      tag_92\n      jumpi\n      pop\n        /* \"RockPaperScissors_game.sol\":2354:2366  reveal_phase */\n      0x0b\n      0x02\n      swap1\n      sload\n      swap1\n      0x0100\n      exp\n      swap1\n      div\n      0xff\n      and\n        /* \"RockPaperScissors_game.sol\":2354:2396  reveal_phase || block.timestamp >= bindEnd */\n      dup1\n      tag_93\n      jumpi\n      pop\n        /* \"RockPaperScissors_game.sol\":2389:2396  bindEnd */\n      sload(0x00)\n        /* \"RockPaperScissors_game.sol\":2370:2385  block.timestamp */\n      timestamp\n        /* \"RockPaperScissors_game.sol\":2370:2396  block.timestamp >= bindEnd */\n      lt\n      iszero\n        /* \"RockPaperScissors_game.sol\":2354:2396  reveal_phase || block.timestamp >= bindEnd */\n    tag_93:\n        /* \"RockPaperScissors_game.sol\":2321:2397  block.timestamp <= revealEnd && (reveal_phase || block.timestamp >= bindEnd) */\n    tag_92:\n        /* \"RockPaperScissors_game.sol\":2316:2427  if(!(block.timestamp <= revealEnd && (reveal_phase || block.timestamp >= bindEnd))) revert(\"Not Reveal Phase!\") */\n      tag_94\n      jumpi\n        /* \"RockPaperScissors_game.sol\":2400:2427  revert(\"Not Reveal Phase!\") */\n      mload(0x40)\n      0x08c379a000000000000000000000000000000000000000000000000000000000\n      dup2\n      mstore\n      0x04\n      add\n      tag_95\n      swap1\n      tag_96\n      jump\t// in\n    tag_95:\n      mload(0x40)\n      dup1\n      swap2\n      sub\n      swap1\n      revert\n        /* \"RockPaperScissors_game.sol\":2316:2427  if(!(block.timestamp <= revealEnd && (reveal_phase || block.timestamp >= bindEnd))) revert(\"Not Reveal Phase!\") */\n    tag_94:\n        /* \"RockPaperScissors_game.sol\":4559:4567  player_1 */\n      0x05\n      0x00\n      swap1\n      sload\n      swap1\n      0x0100\n      exp\n      swap1\n      div\n      0xffffffffffffffffffffffffffffffffffffffff\n      and\n        /* \"RockPaperScissors_game.sol\":4545:4567  msg.sender == player_1 */\n      0xffffffffffffffffffffffffffffffffffffffff\n      and\n        /* \"RockPaperScissors_game.sol\":4545:4555  msg.sender */\n      caller\n        /* \"RockPaperScissors_game.sol\":4545:4567  msg.sender == player_1 */\n      0xffffffffffffffffffffffffffffffffffffffff\n      and\n      eq\n        /* \"RockPaperScissors_game.sol\":4545:4577  msg.sender == player_1 && sent_1 */\n      dup1\n      iszero\n      tag_98\n      jumpi\n      pop\n        /* \"RockPaperScissors_game.sol\":4571:4577  sent_1 */\n      0x08\n      0x00\n      swap1\n      sload\n      swap1\n      0x0100\n      exp\n      swap1\n      div\n      0xff\n      and\n        /* \"RockPaperScissors_game.sol\":4545:4577  msg.sender == player_1 && sent_1 */\n    tag_98:\n        /* \"RockPaperScissors_game.sol\":4542:5147  if(msg.sender == player_1 && sent_1) {... */\n      iszero\n      tag_99\n      jumpi\n        /* \"RockPaperScissors_game.sol\":4649:4650  a */\n      dup2\n        /* \"RockPaperScissors_game.sol\":4652:4658  secret */\n      dup2\n        /* \"RockPaperScissors_game.sol\":4632:4659  abi.encodePacked(a, secret) */\n      add(0x20, mload(0x40))\n      tag_100\n      swap3\n      swap2\n      swap1\n      tag_101\n      jump\t// in\n    tag_100:\n      mload(0x40)\n      0x20\n      dup2\n      dup4\n      sub\n      sub\n      dup2\n      mstore\n      swap1\n      0x40\n      mstore\n        /* \"RockPaperScissors_game.sol\":4622:4660  keccak256(abi.encodePacked(a, secret)) */\n      dup1\n      mload\n      swap1\n      0x20\n      add\n      keccak256\n        /* \"RockPaperScissors_game.sol\":4597:4605  action_1 */\n      0x06\n        /* \"RockPaperScissors_game.sol\":4597:4618  action_1.hiddenAction */\n      0x00\n      add\n      sload\n        /* \"RockPaperScissors_game.sol\":4597:4660  action_1.hiddenAction == keccak256(abi.encodePacked(a, secret)) */\n      sub\n        /* \"RockPaperScissors_game.sol\":4594:4830  if(action_1.hiddenAction == keccak256(abi.encodePacked(a, secret))) {... */\n      tag_102\n      jumpi\n        /* \"RockPaperScissors_game.sol\":4699:4700  a */\n      dup2\n        /* \"RockPaperScissors_game.sol\":4681:4689  action_1 */\n      0x06\n        /* \"RockPaperScissors_game.sol\":4681:4696  action_1.action */\n      0x01\n      add\n        /* \"RockPaperScissors_game.sol\":4681:4700  action_1.action = a */\n      dup2\n      swap1\n      sstore\n      pop\n        /* \"RockPaperScissors_game.sol\":4722:4753  validateAction(action_1.action) */\n      tag_103\n        /* \"RockPaperScissors_game.sol\":4737:4745  action_1 */\n      0x06\n        /* \"RockPaperScissors_game.sol\":4737:4752  action_1.action */\n      0x01\n      add\n      sload\n        /* \"RockPaperScissors_game.sol\":4722:4736  validateAction */\n      tag_104\n        /* \"RockPaperScissors_game.sol\":4722:4753  validateAction(action_1.action) */\n      jump\t// in\n    tag_103:\n        /* \"RockPaperScissors_game.sol\":4719:4815  if(validateAction(action_1.action)) {... */\n      iszero\n      tag_105\n      jumpi\n        /* \"RockPaperScissors_game.sol\":4791:4795  true */\n      0x01\n        /* \"RockPaperScissors_game.sol\":4778:4788  revealed_1 */\n      0x08\n      0x01\n        /* \"RockPaperScissors_game.sol\":4778:4795  revealed_1 = true */\n      0x0100\n      exp\n      dup2\n      sload\n      dup2\n      0xff\n      mul\n      not\n      and\n      swap1\n      dup4\n      iszero\n      iszero\n      mul\n      or\n      swap1\n      sstore\n      pop\n        /* \"RockPaperScissors_game.sol\":4719:4815  if(validateAction(action_1.action)) {... */\n    tag_105:\n        /* \"RockPaperScissors_game.sol\":4594:4830  if(action_1.hiddenAction == keccak256(abi.encodePacked(a, secret))) {... */\n    tag_102:\n        /* \"RockPaperScissors_game.sol\":4542:5147  if(msg.sender == player_1 && sent_1) {... */\n      jump(tag_106)\n    tag_99:\n        /* \"RockPaperScissors_game.sol\":4864:4872  player_2 */\n      0x08\n      0x02\n      swap1\n      sload\n      swap1\n      0x0100\n      exp\n      swap1\n      div\n      0xffffffffffffffffffffffffffffffffffffffff\n      and\n        /* \"RockPaperScissors_game.sol\":4850:4872  msg.sender == player_2 */\n      0xffffffffffffffffffffffffffffffffffffffff\n      and\n        /* \"RockPaperScissors_game.sol\":4850:4860  msg.sender */\n      caller\n        /* \"RockPaperScissors_game.sol\":4850:4872  msg.sender == player_2 */\n      0xffffffffffffffffffffffffffffffffffffffff\n      and\n      eq\n        /* \"RockPaperScissors_game.sol\":4850:4882  msg.sender == player_2 && sent_2 */\n      dup1\n      iszero\n      tag_107\n      jumpi\n      pop\n        /* \"RockPaperScissors_game.sol\":4876:4882  sent_2 */\n      0x0b\n      0x00\n      swap1\n      sload\n      swap1\n      0x0100\n      exp\n      swap1\n      div\n      0xff\n      and\n        /* \"RockPaperScissors_game.sol\":4850:4882  msg.sender == player_2 && sent_2 */\n    tag_107:\n        /* \"RockPaperScissors_game.sol\":4847:5147  if(msg.sender == player_2 && sent_2) {... */\n      iszero\n      tag_108\n      jumpi\n        /* \"RockPaperScissors_game.sol\":4954:4955  a */\n      dup2\n        /* \"RockPaperScissors_game.sol\":4957:4963  secret */\n      dup2\n        /* \"RockPaperScissors_game.sol\":4937:4964  abi.encodePacked(a, secret) */\n      add(0x20, mload(0x40))\n      tag_109\n      swap3\n      swap2\n      swap1\n      tag_101\n      jump\t// in\n    tag_109:\n      mload(0x40)\n      0x20\n      dup2\n      dup4\n      sub\n      sub\n      dup2\n      mstore\n      swap1\n      0x40\n      mstore\n        /* \"RockPaperScissors_game.sol\":4927:4965  keccak256(abi.encodePacked(a, secret)) */\n      dup1\n      mload\n      swap1\n      0x20\n      add\n      keccak256\n        /* \"RockPaperScissors_game.sol\":4902:4910  action_2 */\n      0x09\n        /* \"RockPaperScissors_game.sol\":4902:4923  action_2.hiddenAction */\n      0x00\n      add\n      sload\n        /* \"RockPaperScissors_game.sol\":4902:4965  action_2.hiddenAction == keccak256(abi.encodePacked(a, secret)) */\n      sub\n        /* \"RockPaperScissors_game.sol\":4899:5136  if(action_2.hiddenAction == keccak256(abi.encodePacked(a, secret))) {... */\n      tag_110\n      jumpi\n        /* \"RockPaperScissors_game.sol\":5004:5005  a */\n      dup2\n        /* \"RockPaperScissors_game.sol\":4986:4994  action_2 */\n      0x09\n        /* \"RockPaperScissors_game.sol\":4986:5001  action_2.action */\n      0x01\n      add\n        /* \"RockPaperScissors_game.sol\":4986:5005  action_2.action = a */\n      dup2\n      swap1\n      sstore\n      pop\n        /* \"RockPaperScissors_game.sol\":5028:5059  validateAction(action_2.action) */\n      tag_111\n        /* \"RockPaperScissors_game.sol\":5043:5051  action_2 */\n      0x09\n        /* \"RockPaperScissors_game.sol\":5043:5058  action_2.action */\n      0x01\n      add\n      sload\n        /* \"RockPaperScissors_game.sol\":5028:5042  validateAction */\n      tag_104\n        /* \"RockPaperScissors_game.sol\":5028:5059  validateAction(action_2.action) */\n      jump\t// in\n    tag_111:\n        /* \"RockPaperScissors_game.sol\":5025:5121  if(validateAction(action_2.action)) {... */\n      iszero\n      tag_112\n      jumpi\n        /* \"RockPaperScissors_game.sol\":5097:5101  true */\n      0x01\n        /* \"RockPaperScissors_game.sol\":5084:5094  revealed_2 */\n      0x0b\n      0x01\n        /* \"RockPaperScissors_game.sol\":5084:5101  revealed_2 = true */\n      0x0100\n      exp\n      dup2\n      sload\n      dup2\n      0xff\n      mul\n      not\n      and\n      swap1\n      dup4\n      iszero\n      iszero\n      mul\n      or\n      swap1\n      sstore\n      pop\n        /* \"RockPaperScissors_game.sol\":5025:5121  if(validateAction(action_2.action)) {... */\n    tag_112:\n        /* \"RockPaperScissors_game.sol\":4899:5136  if(action_2.hiddenAction == keccak256(abi.encodePacked(a, secret))) {... */\n    tag_110:\n        /* \"RockPaperScissors_game.sol\":4847:5147  if(msg.sender == player_2 && sent_2) {... */\n    tag_108:\n        /* \"RockPaperScissors_game.sol\":4542:5147  if(msg.sender == player_1 && sent_1) {... */\n    tag_106:\n        /* \"RockPaperScissors_game.sol\":5254:5264  revealed_1 */\n      0x08\n      0x01\n      swap1\n      sload\n      swap1\n      0x0100\n      exp\n      swap1\n      div\n      0xff\n      and\n        /* \"RockPaperScissors_game.sol\":5254:5278  revealed_1 && revealed_2 */\n      dup1\n      iszero\n      tag_113\n      jumpi\n      pop\n        /* \"RockPaperScissors_game.sol\":5268:5278  revealed_2 */\n      0x0b\n      0x01\n      swap1\n      sload\n      swap1\n      0x0100\n      exp\n      swap1\n      div\n      0xff\n      and\n        /* \"RockPaperScissors_game.sol\":5254:5278  revealed_1 && revealed_2 */\n    tag_113:\n        /* \"RockPaperScissors_game.sol\":5251:5322  if(revealed_1 && revealed_2) {... */\n      iszero\n      tag_114\n      jumpi\n        /* \"RockPaperScissors_game.sol\":5295:5310  computeWinner() */\n      tag_115\n        /* \"RockPaperScissors_game.sol\":5295:5308  computeWinner */\n      tag_116\n        /* \"RockPaperScissors_game.sol\":5295:5310  computeWinner() */\n      jump\t// in\n    tag_115:\n        /* \"RockPaperScissors_game.sol\":5251:5322  if(revealed_1 && revealed_2) {... */\n    tag_114:\n        /* \"RockPaperScissors_game.sol\":4460:5329  function revealAction(uint a, bytes32 secret) external onlyRevealPhase {... */\n      pop\n      pop\n      jump\t// out\n        /* \"RockPaperScissors_game.sol\":1573:1591  bool public sent_2 */\n    tag_39:\n      0x0b\n      0x00\n      swap1\n      sload\n      swap1\n      0x0100\n      exp\n      swap1\n      div\n      0xff\n      and\n      dup2\n      jump\t// out\n        /* \"RockPaperScissors_game.sol\":7665:7798  function test(uint a, bytes32 secret) external pure returns(bytes32) {... */\n    tag_43:\n        /* \"RockPaperScissors_game.sol\":7725:7732  bytes32 */\n      0x00\n        /* \"RockPaperScissors_game.sol\":7779:7780  a */\n      dup3\n        /* \"RockPaperScissors_game.sol\":7782:7788  secret */\n      dup3\n        /* \"RockPaperScissors_game.sol\":7762:7789  abi.encodePacked(a, secret) */\n      add(0x20, mload(0x40))\n      tag_118\n      swap3\n      swap2\n      swap1\n      tag_101\n      jump\t// in\n    tag_118:\n      mload(0x40)\n      0x20\n      dup2\n      dup4\n      sub\n      sub\n      dup2\n      mstore\n      swap1\n      0x40\n      mstore\n        /* \"RockPaperScissors_game.sol\":7752:7790  keccak256(abi.encodePacked(a, secret)) */\n      dup1\n      mload\n      swap1\n      0x20\n      add\n      keccak256\n        /* \"RockPaperScissors_game.sol\":7745:7790  return keccak256(abi.encodePacked(a, secret)) */\n      swap1\n      pop\n        /* \"RockPaperScissors_game.sol\":7665:7798  function test(uint a, bytes32 secret) external pure returns(bytes32) {... */\n      swap3\n      swap2\n      pop\n      pop\n      jump\t// out\n        /* \"RockPaperScissors_game.sol\":5452:5968  function withdraw() external onlyAfter(revealEnd) onlyBefore(withdrawEnd) {... */\n    tag_47:\n        /* \"RockPaperScissors_game.sol\":5491:5500  revealEnd */\n      sload(0x01)\n        /* \"RockPaperScissors_game.sol\":2775:2779  time */\n      dup1\n        /* \"RockPaperScissors_game.sol\":2756:2771  block.timestamp */\n      timestamp\n        /* \"RockPaperScissors_game.sol\":2756:2779  block.timestamp <= time */\n      gt\n        /* \"RockPaperScissors_game.sol\":2753:2801  if(block.timestamp <= time) revert(\"Too Early!\") */\n      tag_120\n      jumpi\n        /* \"RockPaperScissors_game.sol\":2781:2801  revert(\"Too Early!\") */\n      mload(0x40)\n      0x08c379a000000000000000000000000000000000000000000000000000000000\n      dup2\n      mstore\n      0x04\n      add\n      tag_121\n      swap1\n      tag_122\n      jump\t// in\n    tag_121:\n      mload(0x40)\n      dup1\n      swap2\n      sub\n      swap1\n      revert\n        /* \"RockPaperScissors_game.sol\":2753:2801  if(block.timestamp <= time) revert(\"Too Early!\") */\n    tag_120:\n        /* \"RockPaperScissors_game.sol\":5513:5524  withdrawEnd */\n      sload(0x02)\n        /* \"RockPaperScissors_game.sol\":2589:2593  time */\n      dup1\n        /* \"RockPaperScissors_game.sol\":2570:2585  block.timestamp */\n      timestamp\n        /* \"RockPaperScissors_game.sol\":2570:2593  block.timestamp >= time */\n      lt\n        /* \"RockPaperScissors_game.sol\":2567:2614  if(block.timestamp >= time) revert(\"Too Late!\") */\n      tag_124\n      jumpi\n        /* \"RockPaperScissors_game.sol\":2595:2614  revert(\"Too Late!\") */\n      mload(0x40)\n      0x08c379a000000000000000000000000000000000000000000000000000000000\n      dup2\n      mstore\n      0x04\n      add\n      tag_125\n      swap1\n      tag_126\n      jump\t// in\n    tag_125:\n      mload(0x40)\n      dup1\n      swap2\n      sub\n      swap1\n      revert\n        /* \"RockPaperScissors_game.sol\":2567:2614  if(block.timestamp >= time) revert(\"Too Late!\") */\n    tag_124:\n        /* \"RockPaperScissors_game.sol\":5537:5548  uint amount */\n      0x00\n        /* \"RockPaperScissors_game.sol\":5576:5584  player_1 */\n      0x05\n      0x00\n      swap1\n      sload\n      swap1\n      0x0100\n      exp\n      swap1\n      div\n      0xffffffffffffffffffffffffffffffffffffffff\n      and\n        /* \"RockPaperScissors_game.sol\":5562:5584  msg.sender == player_1 */\n      0xffffffffffffffffffffffffffffffffffffffff\n      and\n        /* \"RockPaperScissors_game.sol\":5562:5572  msg.sender */\n      caller\n        /* \"RockPaperScissors_game.sol\":5562:5584  msg.sender == player_1 */\n      0xffffffffffffffffffffffffffffffffffffffff\n      and\n      eq\n        /* \"RockPaperScissors_game.sol\":5562:5598  msg.sender == player_1 && revealed_1 */\n      dup1\n      iszero\n      tag_128\n      jumpi\n      pop\n        /* \"RockPaperScissors_game.sol\":5588:5598  revealed_1 */\n      0x08\n      0x01\n      swap1\n      sload\n      swap1\n      0x0100\n      exp\n      swap1\n      div\n      0xff\n      and\n        /* \"RockPaperScissors_game.sol\":5562:5598  msg.sender == player_1 && revealed_1 */\n    tag_128:\n        /* \"RockPaperScissors_game.sol\":5559:5961  if(msg.sender == player_1 && revealed_1) {... */\n      iszero\n      tag_129\n      jumpi\n        /* \"RockPaperScissors_game.sol\":5619:5629  revealed_2 */\n      0x0b\n      0x01\n      swap1\n      sload\n      swap1\n      0x0100\n      exp\n      swap1\n      div\n      0xff\n      and\n        /* \"RockPaperScissors_game.sol\":5615:5746  if(!revealed_2) {... */\n      tag_130\n      jumpi\n        /* \"RockPaperScissors_game.sol\":5659:5665  reward */\n      sload(0x04)\n        /* \"RockPaperScissors_game.sol\":5650:5665  amount = reward */\n      swap1\n      pop\n        /* \"RockPaperScissors_game.sol\":5676:5677  0 */\n      0x00\n        /* \"RockPaperScissors_game.sol\":5667:5673  reward */\n      0x04\n        /* \"RockPaperScissors_game.sol\":5667:5677  reward = 0 */\n      dup2\n      swap1\n      sstore\n      pop\n        /* \"RockPaperScissors_game.sol\":5704:5712  player_1 */\n      0x05\n      0x00\n      swap1\n      sload\n      swap1\n      0x0100\n      exp\n      swap1\n      div\n      0xffffffffffffffffffffffffffffffffffffffff\n      and\n        /* \"RockPaperScissors_game.sol\":5696:5722  payable(player_1).transfer */\n      0xffffffffffffffffffffffffffffffffffffffff\n      and\n        /* \"RockPaperScissors_game.sol\":5696:5730  payable(player_1).transfer(amount) */\n      0x08fc\n        /* \"RockPaperScissors_game.sol\":5723:5729  amount */\n      dup3\n        /* \"RockPaperScissors_game.sol\":5696:5730  payable(player_1).transfer(amount) */\n      swap1\n      dup2\n      iszero\n      mul\n      swap1\n      mload(0x40)\n      0x00\n      mload(0x40)\n      dup1\n      dup4\n      sub\n      dup2\n      dup6\n      dup9\n      dup9\n      call\n      swap4\n      pop\n      pop\n      pop\n      pop\n      iszero\n      dup1\n      iszero\n      tag_132\n      jumpi\n      returndatasize\n      0x00\n      dup1\n      returndatacopy\n      revert(0x00, returndatasize)\n    tag_132:\n      pop\n        /* \"RockPaperScissors_game.sol\":5615:5746  if(!revealed_2) {... */\n    tag_130:\n        /* \"RockPaperScissors_game.sol\":5559:5961  if(msg.sender == player_1 && revealed_1) {... */\n      jump(tag_133)\n    tag_129:\n        /* \"RockPaperScissors_game.sol\":5780:5788  player_2 */\n      0x08\n      0x02\n      swap1\n      sload\n      swap1\n      0x0100\n      exp\n      swap1\n      div\n      0xffffffffffffffffffffffffffffffffffffffff\n      and\n        /* \"RockPaperScissors_game.sol\":5766:5788  msg.sender == player_2 */\n      0xffffffffffffffffffffffffffffffffffffffff\n      and\n        /* \"RockPaperScissors_game.sol\":5766:5776  msg.sender */\n      caller\n        /* \"RockPaperScissors_game.sol\":5766:5788  msg.sender == player_2 */\n      0xffffffffffffffffffffffffffffffffffffffff\n      and\n      eq\n        /* \"RockPaperScissors_game.sol\":5766:5802  msg.sender == player_2 && revealed_2 */\n      dup1\n      iszero\n      tag_134\n      jumpi\n      pop\n        /* \"RockPaperScissors_game.sol\":5792:5802  revealed_2 */\n      0x0b\n      0x01\n      swap1\n      sload\n      swap1\n      0x0100\n      exp\n      swap1\n      div\n      0xff\n      and\n        /* \"RockPaperScissors_game.sol\":5766:5802  msg.sender == player_2 && revealed_2 */\n    tag_134:\n        /* \"RockPaperScissors_game.sol\":5763:5961  if(msg.sender == player_2 && revealed_2) {... */\n      iszero\n      tag_135\n      jumpi\n        /* \"RockPaperScissors_game.sol\":5823:5833  revealed_1 */\n      0x08\n      0x01\n      swap1\n      sload\n      swap1\n      0x0100\n      exp\n      swap1\n      div\n      0xff\n      and\n        /* \"RockPaperScissors_game.sol\":5819:5950  if(!revealed_1) {... */\n      tag_136\n      jumpi\n        /* \"RockPaperScissors_game.sol\":5863:5869  reward */\n      sload(0x04)\n        /* \"RockPaperScissors_game.sol\":5854:5869  amount = reward */\n      swap1\n      pop\n        /* \"RockPaperScissors_game.sol\":5880:5881  0 */\n      0x00\n        /* \"RockPaperScissors_game.sol\":5871:5877  reward */\n      0x04\n        /* \"RockPaperScissors_game.sol\":5871:5881  reward = 0 */\n      dup2\n      swap1\n      sstore\n      pop\n        /* \"RockPaperScissors_game.sol\":5908:5916  player_2 */\n      0x08\n      0x02\n      swap1\n      sload\n      swap1\n      0x0100\n      exp\n      swap1\n      div\n      0xffffffffffffffffffffffffffffffffffffffff\n      and\n        /* \"RockPaperScissors_game.sol\":5900:5926  payable(player_2).transfer */\n      0xffffffffffffffffffffffffffffffffffffffff\n      and\n        /* \"RockPaperScissors_game.sol\":5900:5934  payable(player_2).transfer(amount) */\n      0x08fc\n        /* \"RockPaperScissors_game.sol\":5927:5933  amount */\n      dup3\n        /* \"RockPaperScissors_game.sol\":5900:5934  payable(player_2).transfer(amount) */\n      swap1\n      dup2\n      iszero\n      mul\n      swap1\n      mload(0x40)\n      0x00\n      mload(0x40)\n      dup1\n      dup4\n      sub\n      dup2\n      dup6\n      dup9\n      dup9\n      call\n      swap4\n      pop\n      pop\n      pop\n      pop\n      iszero\n      dup1\n      iszero\n      tag_138\n      jumpi\n      returndatasize\n      0x00\n      dup1\n      returndatacopy\n      revert(0x00, returndatasize)\n    tag_138:\n      pop\n        /* \"RockPaperScissors_game.sol\":5819:5950  if(!revealed_1) {... */\n    tag_136:\n        /* \"RockPaperScissors_game.sol\":5763:5961  if(msg.sender == player_2 && revealed_2) {... */\n    tag_135:\n        /* \"RockPaperScissors_game.sol\":5559:5961  if(msg.sender == player_1 && revealed_1) {... */\n    tag_133:\n        /* \"RockPaperScissors_game.sol\":5526:5968  {... */\n      pop\n        /* \"RockPaperScissors_game.sol\":2812:2813  _ */\n      pop\n        /* \"RockPaperScissors_game.sol\":5452:5968  function withdraw() external onlyAfter(revealEnd) onlyBefore(withdrawEnd) {... */\n      pop\n      jump\t// out\n        /* \"RockPaperScissors_game.sol\":1367:1397  address payable public manager */\n    tag_49:\n      0x03\n      0x00\n      swap1\n      sload\n      swap1\n      0x0100\n      exp\n      swap1\n      div\n      0xffffffffffffffffffffffffffffffffffffffff\n      and\n      dup2\n      jump\t// out\n        /* \"RockPaperScissors_game.sol\":1190:1216  uint public constant R = 0 */\n    tag_53:\n        /* \"RockPaperScissors_game.sol\":1215:1216  0 */\n      0x00\n        /* \"RockPaperScissors_game.sol\":1190:1216  uint public constant R = 0 */\n      dup2\n      jump\t// out\n        /* \"RockPaperScissors_game.sol\":1256:1282  uint public constant S = 2 */\n    tag_56:\n        /* \"RockPaperScissors_game.sol\":1281:1282  2 */\n      0x02\n        /* \"RockPaperScissors_game.sol\":1256:1282  uint public constant S = 2 */\n      dup2\n      jump\t// out\n        /* \"RockPaperScissors_game.sol\":1424:1455  address payable public player_1 */\n    tag_59:\n      0x05\n      0x00\n      swap1\n      sload\n      swap1\n      0x0100\n      exp\n      swap1\n      div\n      0xffffffffffffffffffffffffffffffffffffffff\n      and\n      dup2\n      jump\t// out\n        /* \"RockPaperScissors_game.sol\":6096:6305  function retrieveReward() external onlyAfter(withdrawEnd) {... */\n    tag_62:\n        /* \"RockPaperScissors_game.sol\":6141:6152  withdrawEnd */\n      sload(0x02)\n        /* \"RockPaperScissors_game.sol\":2775:2779  time */\n      dup1\n        /* \"RockPaperScissors_game.sol\":2756:2771  block.timestamp */\n      timestamp\n        /* \"RockPaperScissors_game.sol\":2756:2779  block.timestamp <= time */\n      gt\n        /* \"RockPaperScissors_game.sol\":2753:2801  if(block.timestamp <= time) revert(\"Too Early!\") */\n      tag_140\n      jumpi\n        /* \"RockPaperScissors_game.sol\":2781:2801  revert(\"Too Early!\") */\n      mload(0x40)\n      0x08c379a000000000000000000000000000000000000000000000000000000000\n      dup2\n      mstore\n      0x04\n      add\n      tag_141\n      swap1\n      tag_122\n      jump\t// in\n    tag_141:\n      mload(0x40)\n      dup1\n      swap2\n      sub\n      swap1\n      revert\n        /* \"RockPaperScissors_game.sol\":2753:2801  if(block.timestamp <= time) revert(\"Too Early!\") */\n    tag_140:\n        /* \"RockPaperScissors_game.sol\":6182:6189  manager */\n      0x03\n      0x00\n      swap1\n      sload\n      swap1\n      0x0100\n      exp\n      swap1\n      div\n      0xffffffffffffffffffffffffffffffffffffffff\n      and\n        /* \"RockPaperScissors_game.sol\":6168:6189  msg.sender == manager */\n      0xffffffffffffffffffffffffffffffffffffffff\n      and\n        /* \"RockPaperScissors_game.sol\":6168:6178  msg.sender */\n      caller\n        /* \"RockPaperScissors_game.sol\":6168:6189  msg.sender == manager */\n      0xffffffffffffffffffffffffffffffffffffffff\n      and\n      sub\n        /* \"RockPaperScissors_game.sol\":6165:6298  if(msg.sender == manager) {... */\n      tag_143\n      jumpi\n        /* \"RockPaperScissors_game.sol\":6206:6217  uint amount */\n      0x00\n        /* \"RockPaperScissors_game.sol\":6220:6226  reward */\n      sload(0x04)\n        /* \"RockPaperScissors_game.sol\":6206:6226  uint amount = reward */\n      swap1\n      pop\n        /* \"RockPaperScissors_game.sol\":6237:6238  0 */\n      0x00\n        /* \"RockPaperScissors_game.sol\":6228:6234  reward */\n      0x04\n        /* \"RockPaperScissors_game.sol\":6228:6238  reward = 0 */\n      dup2\n      swap1\n      sstore\n      pop\n        /* \"RockPaperScissors_game.sol\":6261:6268  manager */\n      0x03\n      0x00\n      swap1\n      sload\n      swap1\n      0x0100\n      exp\n      swap1\n      div\n      0xffffffffffffffffffffffffffffffffffffffff\n      and\n        /* \"RockPaperScissors_game.sol\":6253:6278  payable(manager).transfer */\n      0xffffffffffffffffffffffffffffffffffffffff\n      and\n        /* \"RockPaperScissors_game.sol\":6253:6286  payable(manager).transfer(amount) */\n      0x08fc\n        /* \"RockPaperScissors_game.sol\":6279:6285  amount */\n      dup3\n        /* \"RockPaperScissors_game.sol\":6253:6286  payable(manager).transfer(amount) */\n      swap1\n      dup2\n      iszero\n      mul\n      swap1\n      mload(0x40)\n      0x00\n      mload(0x40)\n      dup1\n      dup4\n      sub\n      dup2\n      dup6\n      dup9\n      dup9\n      call\n      swap4\n      pop\n      pop\n      pop\n      pop\n      iszero\n      dup1\n      iszero\n      tag_145\n      jumpi\n      returndatasize\n      0x00\n      dup1\n      returndatacopy\n      revert(0x00, returndatasize)\n    tag_145:\n      pop\n        /* \"RockPaperScissors_game.sol\":6191:6298  {... */\n      pop\n        /* \"RockPaperScissors_game.sol\":6165:6298  if(msg.sender == manager) {... */\n    tag_143:\n        /* \"RockPaperScissors_game.sol\":6096:6305  function retrieveReward() external onlyAfter(withdrawEnd) {... */\n      pop\n      jump\t// out\n        /* \"RockPaperScissors_game.sol\":1223:1249  uint public constant P = 1 */\n    tag_64:\n        /* \"RockPaperScissors_game.sol\":1248:1249  1 */\n      0x01\n        /* \"RockPaperScissors_game.sol\":1223:1249  uint public constant P = 1 */\n      dup2\n      jump\t// out\n        /* \"RockPaperScissors_game.sol\":1312:1333  uint public revealEnd */\n    tag_67:\n      sload(0x01)\n      dup2\n      jump\t// out\n        /* \"RockPaperScissors_game.sol\":1474:1492  bool public sent_1 */\n    tag_70:\n      0x08\n      0x00\n      swap1\n      sload\n      swap1\n      0x0100\n      exp\n      swap1\n      div\n      0xff\n      and\n      dup2\n      jump\t// out\n        /* \"RockPaperScissors_game.sol\":1523:1554  address payable public player_2 */\n    tag_73:\n      0x08\n      0x02\n      swap1\n      sload\n      swap1\n      0x0100\n      exp\n      swap1\n      div\n      0xffffffffffffffffffffffffffffffffffffffff\n      and\n      dup2\n      jump\t// out\n        /* \"RockPaperScissors_game.sol\":1624:1648  bool public reveal_phase */\n    tag_76:\n      0x0b\n      0x02\n      swap1\n      sload\n      swap1\n      0x0100\n      exp\n      swap1\n      div\n      0xff\n      and\n      dup2\n      jump\t// out\n        /* \"RockPaperScissors_game.sol\":1291:1310  uint public bindEnd */\n    tag_79:\n      sload(0x00)\n      dup2\n      jump\t// out\n        /* \"RockPaperScissors_game.sol\":1335:1358  uint public withdrawEnd */\n    tag_82:\n      sload(0x02)\n      dup2\n      jump\t// out\n        /* \"RockPaperScissors_game.sol\":1593:1615  bool public revealed_2 */\n    tag_85:\n      0x0b\n      0x01\n      swap1\n      sload\n      swap1\n      0x0100\n      exp\n      swap1\n      div\n      0xff\n      and\n      dup2\n      jump\t// out\n        /* \"RockPaperScissors_game.sol\":3648:4383  function sendAction(bytes32 hiddenAction) external onlyBindPhase {... */\n    tag_90:\n        /* \"RockPaperScissors_game.sol\":1849:1856  bindEnd */\n      sload(0x00)\n        /* \"RockPaperScissors_game.sol\":1830:1845  block.timestamp */\n      timestamp\n        /* \"RockPaperScissors_game.sol\":1830:1856  block.timestamp >= bindEnd */\n      lt\n      iszero\n        /* \"RockPaperScissors_game.sol\":1830:1872  block.timestamp >= bindEnd || reveal_phase */\n      dup1\n      tag_147\n      jumpi\n      pop\n        /* \"RockPaperScissors_game.sol\":1860:1872  reveal_phase */\n      0x0b\n      0x02\n      swap1\n      sload\n      swap1\n      0x0100\n      exp\n      swap1\n      div\n      0xff\n      and\n        /* \"RockPaperScissors_game.sol\":1830:1872  block.timestamp >= bindEnd || reveal_phase */\n    tag_147:\n        /* \"RockPaperScissors_game.sol\":1827:1901  if(block.timestamp >= bindEnd || reveal_phase) revert(\"Not Action Phase!\") */\n      iszero\n      tag_148\n      jumpi\n        /* \"RockPaperScissors_game.sol\":1874:1901  revert(\"Not Action Phase!\") */\n      mload(0x40)\n      0x08c379a000000000000000000000000000000000000000000000000000000000\n      dup2\n      mstore\n      0x04\n      add\n      tag_149\n      swap1\n      tag_150\n      jump\t// in\n    tag_149:\n      mload(0x40)\n      dup1\n      swap2\n      sub\n      swap1\n      revert\n        /* \"RockPaperScissors_game.sol\":1827:1901  if(block.timestamp >= bindEnd || reveal_phase) revert(\"Not Action Phase!\") */\n    tag_148:\n        /* \"RockPaperScissors_game.sol\":3741:3749  player_1 */\n      0x05\n      0x00\n      swap1\n      sload\n      swap1\n      0x0100\n      exp\n      swap1\n      div\n      0xffffffffffffffffffffffffffffffffffffffff\n      and\n        /* \"RockPaperScissors_game.sol\":3727:3749  msg.sender == player_1 */\n      0xffffffffffffffffffffffffffffffffffffffff\n      and\n        /* \"RockPaperScissors_game.sol\":3727:3737  msg.sender */\n      caller\n        /* \"RockPaperScissors_game.sol\":3727:3749  msg.sender == player_1 */\n      0xffffffffffffffffffffffffffffffffffffffff\n      and\n      eq\n        /* \"RockPaperScissors_game.sol\":3727:3760  msg.sender == player_1 && !sent_1 */\n      dup1\n      iszero\n      tag_152\n      jumpi\n      pop\n        /* \"RockPaperScissors_game.sol\":3754:3760  sent_1 */\n      0x08\n      0x00\n      swap1\n      sload\n      swap1\n      0x0100\n      exp\n      swap1\n      div\n      0xff\n      and\n        /* \"RockPaperScissors_game.sol\":3753:3760  !sent_1 */\n      iszero\n        /* \"RockPaperScissors_game.sol\":3727:3760  msg.sender == player_1 && !sent_1 */\n    tag_152:\n        /* \"RockPaperScissors_game.sol\":3724:3988  if(msg.sender == player_1 && !sent_1) {... */\n      iszero\n      tag_153\n      jumpi\n        /* \"RockPaperScissors_game.sol\":3801:3813  hiddenAction */\n      dup1\n        /* \"RockPaperScissors_game.sol\":3777:3785  action_1 */\n      0x06\n        /* \"RockPaperScissors_game.sol\":3777:3798  action_1.hiddenAction */\n      0x00\n      add\n        /* \"RockPaperScissors_game.sol\":3777:3813  action_1.hiddenAction = hiddenAction */\n      dup2\n      swap1\n      sstore\n      pop\n        /* \"RockPaperScissors_game.sol\":3837:3841  true */\n      0x01\n        /* \"RockPaperScissors_game.sol\":3828:3834  sent_1 */\n      0x08\n      0x00\n        /* \"RockPaperScissors_game.sol\":3828:3841  sent_1 = true */\n      0x0100\n      exp\n      dup2\n      sload\n      dup2\n      0xff\n      mul\n      not\n      and\n      swap1\n      dup4\n      iszero\n      iszero\n      mul\n      or\n      swap1\n      sstore\n      pop\n        /* \"RockPaperScissors_game.sol\":3724:3988  if(msg.sender == player_1 && !sent_1) {... */\n      jump(tag_154)\n    tag_153:\n        /* \"RockPaperScissors_game.sol\":3876:3884  player_2 */\n      0x08\n      0x02\n      swap1\n      sload\n      swap1\n      0x0100\n      exp\n      swap1\n      div\n      0xffffffffffffffffffffffffffffffffffffffff\n      and\n        /* \"RockPaperScissors_game.sol\":3862:3884  msg.sender == player_2 */\n      0xffffffffffffffffffffffffffffffffffffffff\n      and\n        /* \"RockPaperScissors_game.sol\":3862:3872  msg.sender */\n      caller\n        /* \"RockPaperScissors_game.sol\":3862:3884  msg.sender == player_2 */\n      0xffffffffffffffffffffffffffffffffffffffff\n      and\n      eq\n        /* \"RockPaperScissors_game.sol\":3862:3895  msg.sender == player_2 && !sent_2 */\n      dup1\n      iszero\n      tag_155\n      jumpi\n      pop\n        /* \"RockPaperScissors_game.sol\":3889:3895  sent_2 */\n      0x0b\n      0x00\n      swap1\n      sload\n      swap1\n      0x0100\n      exp\n      swap1\n      div\n      0xff\n      and\n        /* \"RockPaperScissors_game.sol\":3888:3895  !sent_2 */\n      iszero\n        /* \"RockPaperScissors_game.sol\":3862:3895  msg.sender == player_2 && !sent_2 */\n    tag_155:\n        /* \"RockPaperScissors_game.sol\":3859:3988  if(msg.sender == player_2 && !sent_2) {... */\n      iszero\n      tag_156\n      jumpi\n        /* \"RockPaperScissors_game.sol\":3936:3948  hiddenAction */\n      dup1\n        /* \"RockPaperScissors_game.sol\":3912:3920  action_2 */\n      0x09\n        /* \"RockPaperScissors_game.sol\":3912:3933  action_2.hiddenAction */\n      0x00\n      add\n        /* \"RockPaperScissors_game.sol\":3912:3948  action_2.hiddenAction = hiddenAction */\n      dup2\n      swap1\n      sstore\n      pop\n        /* \"RockPaperScissors_game.sol\":3972:3976  true */\n      0x01\n        /* \"RockPaperScissors_game.sol\":3963:3969  sent_2 */\n      0x0b\n      0x00\n        /* \"RockPaperScissors_game.sol\":3963:3976  sent_2 = true */\n      0x0100\n      exp\n      dup2\n      sload\n      dup2\n      0xff\n      mul\n      not\n      and\n      swap1\n      dup4\n      iszero\n      iszero\n      mul\n      or\n      swap1\n      sstore\n      pop\n        /* \"RockPaperScissors_game.sol\":3859:3988  if(msg.sender == player_2 && !sent_2) {... */\n    tag_156:\n        /* \"RockPaperScissors_game.sol\":3724:3988  if(msg.sender == player_1 && !sent_1) {... */\n    tag_154:\n        /* \"RockPaperScissors_game.sol\":4312:4318  sent_1 */\n      0x08\n      0x00\n      swap1\n      sload\n      swap1\n      0x0100\n      exp\n      swap1\n      div\n      0xff\n      and\n        /* \"RockPaperScissors_game.sol\":4312:4328  sent_1 && sent_2 */\n      dup1\n      iszero\n      tag_157\n      jumpi\n      pop\n        /* \"RockPaperScissors_game.sol\":4322:4328  sent_2 */\n      0x0b\n      0x00\n      swap1\n      sload\n      swap1\n      0x0100\n      exp\n      swap1\n      div\n      0xff\n      and\n        /* \"RockPaperScissors_game.sol\":4312:4328  sent_1 && sent_2 */\n    tag_157:\n        /* \"RockPaperScissors_game.sol\":4309:4376  if(sent_1 && sent_2) {... */\n      iszero\n      tag_158\n      jumpi\n        /* \"RockPaperScissors_game.sol\":4360:4364  true */\n      0x01\n        /* \"RockPaperScissors_game.sol\":4345:4357  reveal_phase */\n      0x0b\n      0x02\n        /* \"RockPaperScissors_game.sol\":4345:4364  reveal_phase = true */\n      0x0100\n      exp\n      dup2\n      sload\n      dup2\n      0xff\n      mul\n      not\n      and\n      swap1\n      dup4\n      iszero\n      iszero\n      mul\n      or\n      swap1\n      sstore\n      pop\n        /* \"RockPaperScissors_game.sol\":4309:4376  if(sent_1 && sent_2) {... */\n    tag_158:\n        /* \"RockPaperScissors_game.sol\":3648:4383  function sendAction(bytes32 hiddenAction) external onlyBindPhase {... */\n      pop\n      jump\t// out\n        /* \"RockPaperScissors_game.sol\":7486:7657  function validateAction(uint a) internal pure returns (bool) {... */\n    tag_104:\n        /* \"RockPaperScissors_game.sol\":7541:7545  bool */\n      0x00\n        /* \"RockPaperScissors_game.sol\":1215:1216  0 */\n      dup1\n        /* \"RockPaperScissors_game.sol\":7561:7562  a */\n      dup3\n        /* \"RockPaperScissors_game.sol\":7561:7567  a == R */\n      eq\n        /* \"RockPaperScissors_game.sol\":7561:7577  a == R || a == P */\n      dup1\n      tag_160\n      jumpi\n      pop\n        /* \"RockPaperScissors_game.sol\":1248:1249  1 */\n      0x01\n        /* \"RockPaperScissors_game.sol\":7571:7572  a */\n      dup3\n        /* \"RockPaperScissors_game.sol\":7571:7577  a == P */\n      eq\n        /* \"RockPaperScissors_game.sol\":7561:7577  a == R || a == P */\n    tag_160:\n        /* \"RockPaperScissors_game.sol\":7561:7587  a == R || a == P || a == S */\n      dup1\n      tag_161\n      jumpi\n      pop\n        /* \"RockPaperScissors_game.sol\":1281:1282  2 */\n      0x02\n        /* \"RockPaperScissors_game.sol\":7581:7582  a */\n      dup3\n        /* \"RockPaperScissors_game.sol\":7581:7587  a == S */\n      eq\n        /* \"RockPaperScissors_game.sol\":7561:7587  a == R || a == P || a == S */\n    tag_161:\n        /* \"RockPaperScissors_game.sol\":7558:7627  if(a == R || a == P || a == S) {... */\n      iszero\n      tag_162\n      jumpi\n        /* \"RockPaperScissors_game.sol\":7611:7615  true */\n      0x01\n        /* \"RockPaperScissors_game.sol\":7604:7615  return true */\n      swap1\n      pop\n      jump(tag_159)\n        /* \"RockPaperScissors_game.sol\":7558:7627  if(a == R || a == P || a == S) {... */\n    tag_162:\n        /* \"RockPaperScissors_game.sol\":7644:7649  false */\n      0x00\n        /* \"RockPaperScissors_game.sol\":7637:7649  return false */\n      swap1\n      pop\n        /* \"RockPaperScissors_game.sol\":7486:7657  function validateAction(uint a) internal pure returns (bool) {... */\n    tag_159:\n      swap2\n      swap1\n      pop\n      jump\t// out\n        /* \"RockPaperScissors_game.sol\":6359:6899  function computeWinner() internal {... */\n    tag_116:\n        /* \"RockPaperScissors_game.sol\":6404:6415  uint amount */\n      0x00\n        /* \"RockPaperScissors_game.sol\":6429:6469  isDraw(action_1.action, action_2.action) */\n      tag_164\n        /* \"RockPaperScissors_game.sol\":6436:6444  action_1 */\n      0x06\n        /* \"RockPaperScissors_game.sol\":6436:6451  action_1.action */\n      0x01\n      add\n      sload\n        /* \"RockPaperScissors_game.sol\":6453:6461  action_2 */\n      0x09\n        /* \"RockPaperScissors_game.sol\":6453:6468  action_2.action */\n      0x01\n      add\n      sload\n        /* \"RockPaperScissors_game.sol\":6429:6435  isDraw */\n      tag_165\n        /* \"RockPaperScissors_game.sol\":6429:6469  isDraw(action_1.action, action_2.action) */\n      jump\t// in\n    tag_164:\n        /* \"RockPaperScissors_game.sol\":6426:6892  if(isDraw(action_1.action, action_2.action)) {... */\n      iszero\n      tag_166\n      jumpi\n        /* \"RockPaperScissors_game.sol\":6504:6505  2 */\n      0x02\n        /* \"RockPaperScissors_game.sol\":6495:6501  reward */\n      sload(0x04)\n        /* \"RockPaperScissors_game.sol\":6495:6505  reward / 2 */\n      tag_167\n      swap2\n      swap1\n      tag_168\n      jump\t// in\n    tag_167:\n        /* \"RockPaperScissors_game.sol\":6486:6505  amount = reward / 2 */\n      swap1\n      pop\n        /* \"RockPaperScissors_game.sol\":6516:6517  0 */\n      0x00\n        /* \"RockPaperScissors_game.sol\":6507:6513  reward */\n      0x04\n        /* \"RockPaperScissors_game.sol\":6507:6517  reward = 0 */\n      dup2\n      swap1\n      sstore\n      pop\n        /* \"RockPaperScissors_game.sol\":6540:6548  player_1 */\n      0x05\n      0x00\n      swap1\n      sload\n      swap1\n      0x0100\n      exp\n      swap1\n      div\n      0xffffffffffffffffffffffffffffffffffffffff\n      and\n        /* \"RockPaperScissors_game.sol\":6532:6558  payable(player_1).transfer */\n      0xffffffffffffffffffffffffffffffffffffffff\n      and\n        /* \"RockPaperScissors_game.sol\":6532:6566  payable(player_1).transfer(amount) */\n      0x08fc\n        /* \"RockPaperScissors_game.sol\":6559:6565  amount */\n      dup3\n        /* \"RockPaperScissors_game.sol\":6532:6566  payable(player_1).transfer(amount) */\n      swap1\n      dup2\n      iszero\n      mul\n      swap1\n      mload(0x40)\n      0x00\n      mload(0x40)\n      dup1\n      dup4\n      sub\n      dup2\n      dup6\n      dup9\n      dup9\n      call\n      swap4\n      pop\n      pop\n      pop\n      pop\n      iszero\n      dup1\n      iszero\n      tag_170\n      jumpi\n      returndatasize\n      0x00\n      dup1\n      returndatacopy\n      revert(0x00, returndatasize)\n    tag_170:\n      pop\n        /* \"RockPaperScissors_game.sol\":6589:6597  player_2 */\n      0x08\n      0x02\n      swap1\n      sload\n      swap1\n      0x0100\n      exp\n      swap1\n      div\n      0xffffffffffffffffffffffffffffffffffffffff\n      and\n        /* \"RockPaperScissors_game.sol\":6581:6607  payable(player_2).transfer */\n      0xffffffffffffffffffffffffffffffffffffffff\n      and\n        /* \"RockPaperScissors_game.sol\":6581:6615  payable(player_2).transfer(amount) */\n      0x08fc\n        /* \"RockPaperScissors_game.sol\":6608:6614  amount */\n      dup3\n        /* \"RockPaperScissors_game.sol\":6581:6615  payable(player_2).transfer(amount) */\n      swap1\n      dup2\n      iszero\n      mul\n      swap1\n      mload(0x40)\n      0x00\n      mload(0x40)\n      dup1\n      dup4\n      sub\n      dup2\n      dup6\n      dup9\n      dup9\n      call\n      swap4\n      pop\n      pop\n      pop\n      pop\n      iszero\n      dup1\n      iszero\n      tag_172\n      jumpi\n      returndatasize\n      0x00\n      dup1\n      returndatacopy\n      revert(0x00, returndatasize)\n    tag_172:\n      pop\n        /* \"RockPaperScissors_game.sol\":6426:6892  if(isDraw(action_1.action, action_2.action)) {... */\n      jump(tag_173)\n    tag_166:\n        /* \"RockPaperScissors_game.sol\":6636:6678  isWinner(action_1.action, action_2.action) */\n      tag_174\n        /* \"RockPaperScissors_game.sol\":6645:6653  action_1 */\n      0x06\n        /* \"RockPaperScissors_game.sol\":6645:6660  action_1.action */\n      0x01\n      add\n      sload\n        /* \"RockPaperScissors_game.sol\":6662:6670  action_2 */\n      0x09\n        /* \"RockPaperScissors_game.sol\":6662:6677  action_2.action */\n      0x01\n      add\n      sload\n        /* \"RockPaperScissors_game.sol\":6636:6644  isWinner */\n      tag_175\n        /* \"RockPaperScissors_game.sol\":6636:6678  isWinner(action_1.action, action_2.action) */\n      jump\t// in\n    tag_174:\n        /* \"RockPaperScissors_game.sol\":6633:6892  if(isWinner(action_1.action, action_2.action)) {... */\n      iszero\n      tag_176\n      jumpi\n        /* \"RockPaperScissors_game.sol\":6704:6710  reward */\n      sload(0x04)\n        /* \"RockPaperScissors_game.sol\":6695:6710  amount = reward */\n      swap1\n      pop\n        /* \"RockPaperScissors_game.sol\":6721:6722  0 */\n      0x00\n        /* \"RockPaperScissors_game.sol\":6712:6718  reward */\n      0x04\n        /* \"RockPaperScissors_game.sol\":6712:6722  reward = 0 */\n      dup2\n      swap1\n      sstore\n      pop\n        /* \"RockPaperScissors_game.sol\":6745:6753  player_1 */\n      0x05\n      0x00\n      swap1\n      sload\n      swap1\n      0x0100\n      exp\n      swap1\n      div\n      0xffffffffffffffffffffffffffffffffffffffff\n      and\n        /* \"RockPaperScissors_game.sol\":6737:6763  payable(player_1).transfer */\n      0xffffffffffffffffffffffffffffffffffffffff\n      and\n        /* \"RockPaperScissors_game.sol\":6737:6771  payable(player_1).transfer(amount) */\n      0x08fc\n        /* \"RockPaperScissors_game.sol\":6764:6770  amount */\n      dup3\n        /* \"RockPaperScissors_game.sol\":6737:6771  payable(player_1).transfer(amount) */\n      swap1\n      dup2\n      iszero\n      mul\n      swap1\n      mload(0x40)\n      0x00\n      mload(0x40)\n      dup1\n      dup4\n      sub\n      dup2\n      dup6\n      dup9\n      dup9\n      call\n      swap4\n      pop\n      pop\n      pop\n      pop\n      iszero\n      dup1\n      iszero\n      tag_178\n      jumpi\n      returndatasize\n      0x00\n      dup1\n      returndatacopy\n      revert(0x00, returndatasize)\n    tag_178:\n      pop\n        /* \"RockPaperScissors_game.sol\":6633:6892  if(isWinner(action_1.action, action_2.action)) {... */\n      jump(tag_179)\n    tag_176:\n        /* \"RockPaperScissors_game.sol\":6813:6819  reward */\n      sload(0x04)\n        /* \"RockPaperScissors_game.sol\":6804:6819  amount = reward */\n      swap1\n      pop\n        /* \"RockPaperScissors_game.sol\":6830:6831  0 */\n      0x00\n        /* \"RockPaperScissors_game.sol\":6821:6827  reward */\n      0x04\n        /* \"RockPaperScissors_game.sol\":6821:6831  reward = 0 */\n      dup2\n      swap1\n      sstore\n      pop\n        /* \"RockPaperScissors_game.sol\":6854:6862  player_2 */\n      0x08\n      0x02\n      swap1\n      sload\n      swap1\n      0x0100\n      exp\n      swap1\n      div\n      0xffffffffffffffffffffffffffffffffffffffff\n      and\n        /* \"RockPaperScissors_game.sol\":6846:6872  payable(player_2).transfer */\n      0xffffffffffffffffffffffffffffffffffffffff\n      and\n        /* \"RockPaperScissors_game.sol\":6846:6880  payable(player_2).transfer(amount) */\n      0x08fc\n        /* \"RockPaperScissors_game.sol\":6873:6879  amount */\n      dup3\n        /* \"RockPaperScissors_game.sol\":6846:6880  payable(player_2).transfer(amount) */\n      swap1\n      dup2\n      iszero\n      mul\n      swap1\n      mload(0x40)\n      0x00\n      mload(0x40)\n      dup1\n      dup4\n      sub\n      dup2\n      dup6\n      dup9\n      dup9\n      call\n      swap4\n      pop\n      pop\n      pop\n      pop\n      iszero\n      dup1\n      iszero\n      tag_181\n      jumpi\n      returndatasize\n      0x00\n      dup1\n      returndatacopy\n      revert(0x00, returndatasize)\n    tag_181:\n      pop\n        /* \"RockPaperScissors_game.sol\":6633:6892  if(isWinner(action_1.action, action_2.action)) {... */\n    tag_179:\n        /* \"RockPaperScissors_game.sol\":6426:6892  if(isDraw(action_1.action, action_2.action)) {... */\n    tag_173:\n        /* \"RockPaperScissors_game.sol\":6393:6899  {... */\n      pop\n        /* \"RockPaperScissors_game.sol\":6359:6899  function computeWinner() internal {... */\n      jump\t// out\n        /* \"RockPaperScissors_game.sol\":7260:7415  function isDraw(uint a1, uint a2) internal pure returns (bool) {... */\n    tag_165:\n        /* \"RockPaperScissors_game.sol\":7317:7321  bool */\n      0x00\n        /* \"RockPaperScissors_game.sol\":7343:7345  a2 */\n      dup2\n        /* \"RockPaperScissors_game.sol\":7337:7339  a1 */\n      dup4\n        /* \"RockPaperScissors_game.sol\":7337:7345  a1 == a2 */\n      sub\n        /* \"RockPaperScissors_game.sol\":7334:7385  if(a1 == a2) {... */\n      tag_183\n      jumpi\n        /* \"RockPaperScissors_game.sol\":7369:7373  true */\n      0x01\n        /* \"RockPaperScissors_game.sol\":7362:7373  return true */\n      swap1\n      pop\n      jump(tag_182)\n        /* \"RockPaperScissors_game.sol\":7334:7385  if(a1 == a2) {... */\n    tag_183:\n        /* \"RockPaperScissors_game.sol\":7402:7407  false */\n      0x00\n        /* \"RockPaperScissors_game.sol\":7395:7407  return false */\n      swap1\n      pop\n        /* \"RockPaperScissors_game.sol\":7260:7415  function isDraw(uint a1, uint a2) internal pure returns (bool) {... */\n    tag_182:\n      swap3\n      swap2\n      pop\n      pop\n      jump\t// out\n        /* \"RockPaperScissors_game.sol\":6989:7206  function isWinner(uint a1, uint a2) internal pure returns (bool) {... */\n    tag_175:\n        /* \"RockPaperScissors_game.sol\":7048:7052  bool */\n      0x00\n        /* \"RockPaperScissors_game.sol\":1215:1216  0 */\n      dup1\n        /* \"RockPaperScissors_game.sol\":7069:7071  a1 */\n      dup4\n        /* \"RockPaperScissors_game.sol\":7069:7076  a1 == R */\n      eq\n        /* \"RockPaperScissors_game.sol\":7069:7087  a1 == R && a2 == S */\n      dup1\n      iszero\n      tag_185\n      jumpi\n      pop\n        /* \"RockPaperScissors_game.sol\":1281:1282  2 */\n      0x02\n        /* \"RockPaperScissors_game.sol\":7080:7082  a2 */\n      dup3\n        /* \"RockPaperScissors_game.sol\":7080:7087  a2 == S */\n      eq\n        /* \"RockPaperScissors_game.sol\":7069:7087  a1 == R && a2 == S */\n    tag_185:\n        /* \"RockPaperScissors_game.sol\":7068:7112  (a1 == R && a2 == S) || (a1 == P && a2 == R) */\n      dup1\n      tag_186\n      jumpi\n      pop\n        /* \"RockPaperScissors_game.sol\":1248:1249  1 */\n      0x01\n        /* \"RockPaperScissors_game.sol\":7093:7095  a1 */\n      dup4\n        /* \"RockPaperScissors_game.sol\":7093:7100  a1 == P */\n      eq\n        /* \"RockPaperScissors_game.sol\":7093:7111  a1 == P && a2 == R */\n      dup1\n      iszero\n      tag_187\n      jumpi\n      pop\n        /* \"RockPaperScissors_game.sol\":1215:1216  0 */\n      0x00\n        /* \"RockPaperScissors_game.sol\":7104:7106  a2 */\n      dup3\n        /* \"RockPaperScissors_game.sol\":7104:7111  a2 == R */\n      eq\n        /* \"RockPaperScissors_game.sol\":7093:7111  a1 == P && a2 == R */\n    tag_187:\n        /* \"RockPaperScissors_game.sol\":7068:7112  (a1 == R && a2 == S) || (a1 == P && a2 == R) */\n    tag_186:\n        /* \"RockPaperScissors_game.sol\":7068:7136  (a1 == R && a2 == S) || (a1 == P && a2 == R) || (a1 == S && a2 == P) */\n      dup1\n      tag_188\n      jumpi\n      pop\n        /* \"RockPaperScissors_game.sol\":1281:1282  2 */\n      0x02\n        /* \"RockPaperScissors_game.sol\":7117:7119  a1 */\n      dup4\n        /* \"RockPaperScissors_game.sol\":7117:7124  a1 == S */\n      eq\n        /* \"RockPaperScissors_game.sol\":7117:7135  a1 == S && a2 == P */\n      dup1\n      iszero\n      tag_189\n      jumpi\n      pop\n        /* \"RockPaperScissors_game.sol\":1248:1249  1 */\n      0x01\n        /* \"RockPaperScissors_game.sol\":7128:7130  a2 */\n      dup3\n        /* \"RockPaperScissors_game.sol\":7128:7135  a2 == P */\n      eq\n        /* \"RockPaperScissors_game.sol\":7117:7135  a1 == S && a2 == P */\n    tag_189:\n        /* \"RockPaperScissors_game.sol\":7068:7136  (a1 == R && a2 == S) || (a1 == P && a2 == R) || (a1 == S && a2 == P) */\n    tag_188:\n        /* \"RockPaperScissors_game.sol\":7065:7176  if((a1 == R && a2 == S) || (a1 == P && a2 == R) || (a1 == S && a2 == P)) {... */\n      iszero\n      tag_190\n      jumpi\n        /* \"RockPaperScissors_game.sol\":7160:7164  true */\n      0x01\n        /* \"RockPaperScissors_game.sol\":7153:7164  return true */\n      swap1\n      pop\n      jump(tag_184)\n        /* \"RockPaperScissors_game.sol\":7065:7176  if((a1 == R && a2 == S) || (a1 == P && a2 == R) || (a1 == S && a2 == P)) {... */\n    tag_190:\n        /* \"RockPaperScissors_game.sol\":7193:7198  false */\n      0x00\n        /* \"RockPaperScissors_game.sol\":7186:7198  return false */\n      swap1\n      pop\n        /* \"RockPaperScissors_game.sol\":6989:7206  function isWinner(uint a1, uint a2) internal pure returns (bool) {... */\n    tag_184:\n      swap3\n      swap2\n      pop\n      pop\n      jump\t// out\n        /* \"#utility.yul\":7:84   */\n    tag_191:\n        /* \"#utility.yul\":44:51   */\n      0x00\n        /* \"#utility.yul\":73:78   */\n      dup2\n        /* \"#utility.yul\":62:78   */\n      swap1\n      pop\n        /* \"#utility.yul\":7:84   */\n      swap2\n      swap1\n      pop\n      jump\t// out\n        /* \"#utility.yul\":90:208   */\n    tag_192:\n        /* \"#utility.yul\":177:201   */\n      tag_225\n        /* \"#utility.yul\":195:200   */\n      dup2\n        /* \"#utility.yul\":177:201   */\n      tag_191\n      jump\t// in\n    tag_225:\n        /* \"#utility.yul\":172:175   */\n      dup3\n        /* \"#utility.yul\":165:202   */\n      mstore\n        /* \"#utility.yul\":90:208   */\n      pop\n      pop\n      jump\t// out\n        /* \"#utility.yul\":214:436   */\n    tag_29:\n        /* \"#utility.yul\":307:311   */\n      0x00\n        /* \"#utility.yul\":345:347   */\n      0x20\n        /* \"#utility.yul\":334:343   */\n      dup3\n        /* \"#utility.yul\":330:348   */\n      add\n        /* \"#utility.yul\":322:348   */\n      swap1\n      pop\n        /* \"#utility.yul\":358:429   */\n      tag_227\n        /* \"#utility.yul\":426:427   */\n      0x00\n        /* \"#utility.yul\":415:424   */\n      dup4\n        /* \"#utility.yul\":411:428   */\n      add\n        /* \"#utility.yul\":402:408   */\n      dup5\n        /* \"#utility.yul\":358:429   */\n      tag_192\n      jump\t// in\n    tag_227:\n        /* \"#utility.yul\":214:436   */\n      swap3\n      swap2\n      pop\n      pop\n      jump\t// out\n        /* \"#utility.yul\":442:532   */\n    tag_193:\n        /* \"#utility.yul\":476:483   */\n      0x00\n        /* \"#utility.yul\":519:524   */\n      dup2\n        /* \"#utility.yul\":512:525   */\n      iszero\n        /* \"#utility.yul\":505:526   */\n      iszero\n        /* \"#utility.yul\":494:526   */\n      swap1\n      pop\n        /* \"#utility.yul\":442:532   */\n      swap2\n      swap1\n      pop\n      jump\t// out\n        /* \"#utility.yul\":538:647   */\n    tag_194:\n        /* \"#utility.yul\":619:640   */\n      tag_230\n        /* \"#utility.yul\":634:639   */\n      dup2\n        /* \"#utility.yul\":619:640   */\n      tag_193\n      jump\t// in\n    tag_230:\n        /* \"#utility.yul\":614:617   */\n      dup3\n        /* \"#utility.yul\":607:641   */\n      mstore\n        /* \"#utility.yul\":538:647   */\n      pop\n      pop\n      jump\t// out\n        /* \"#utility.yul\":653:863   */\n    tag_33:\n        /* \"#utility.yul\":740:744   */\n      0x00\n        /* \"#utility.yul\":778:780   */\n      0x20\n        /* \"#utility.yul\":767:776   */\n      dup3\n        /* \"#utility.yul\":763:781   */\n      add\n        /* \"#utility.yul\":755:781   */\n      swap1\n      pop\n        /* \"#utility.yul\":791:856   */\n      tag_232\n        /* \"#utility.yul\":853:854   */\n      0x00\n        /* \"#utility.yul\":842:851   */\n      dup4\n        /* \"#utility.yul\":838:855   */\n      add\n        /* \"#utility.yul\":829:835   */\n      dup5\n        /* \"#utility.yul\":791:856   */\n      tag_194\n      jump\t// in\n    tag_232:\n        /* \"#utility.yul\":653:863   */\n      swap3\n      swap2\n      pop\n      pop\n      jump\t// out\n        /* \"#utility.yul\":950:1067   */\n    tag_196:\n        /* \"#utility.yul\":1059:1060   */\n      0x00\n        /* \"#utility.yul\":1056:1057   */\n      dup1\n        /* \"#utility.yul\":1049:1061   */\n      revert\n        /* \"#utility.yul\":1196:1318   */\n    tag_198:\n        /* \"#utility.yul\":1269:1293   */\n      tag_237\n        /* \"#utility.yul\":1287:1292   */\n      dup2\n        /* \"#utility.yul\":1269:1293   */\n      tag_191\n      jump\t// in\n    tag_237:\n        /* \"#utility.yul\":1262:1267   */\n      dup2\n        /* \"#utility.yul\":1259:1294   */\n      eq\n        /* \"#utility.yul\":1249:1312   */\n      tag_238\n      jumpi\n        /* \"#utility.yul\":1308:1309   */\n      0x00\n        /* \"#utility.yul\":1305:1306   */\n      dup1\n        /* \"#utility.yul\":1298:1310   */\n      revert\n        /* \"#utility.yul\":1249:1312   */\n    tag_238:\n        /* \"#utility.yul\":1196:1318   */\n      pop\n      jump\t// out\n        /* \"#utility.yul\":1324:1463   */\n    tag_199:\n        /* \"#utility.yul\":1370:1375   */\n      0x00\n        /* \"#utility.yul\":1408:1414   */\n      dup2\n        /* \"#utility.yul\":1395:1415   */\n      calldataload\n        /* \"#utility.yul\":1386:1415   */\n      swap1\n      pop\n        /* \"#utility.yul\":1424:1457   */\n      tag_240\n        /* \"#utility.yul\":1451:1456   */\n      dup2\n        /* \"#utility.yul\":1424:1457   */\n      tag_198\n      jump\t// in\n    tag_240:\n        /* \"#utility.yul\":1324:1463   */\n      swap3\n      swap2\n      pop\n      pop\n      jump\t// out\n        /* \"#utility.yul\":1469:1546   */\n    tag_200:\n        /* \"#utility.yul\":1506:1513   */\n      0x00\n        /* \"#utility.yul\":1535:1540   */\n      dup2\n        /* \"#utility.yul\":1524:1540   */\n      swap1\n      pop\n        /* \"#utility.yul\":1469:1546   */\n      swap2\n      swap1\n      pop\n      jump\t// out\n        /* \"#utility.yul\":1552:1674   */\n    tag_201:\n        /* \"#utility.yul\":1625:1649   */\n      tag_243\n        /* \"#utility.yul\":1643:1648   */\n      dup2\n        /* \"#utility.yul\":1625:1649   */\n      tag_200\n      jump\t// in\n    tag_243:\n        /* \"#utility.yul\":1618:1623   */\n      dup2\n        /* \"#utility.yul\":1615:1650   */\n      eq\n        /* \"#utility.yul\":1605:1668   */\n      tag_244\n      jumpi\n        /* \"#utility.yul\":1664:1665   */\n      0x00\n        /* \"#utility.yul\":1661:1662   */\n      dup1\n        /* \"#utility.yul\":1654:1666   */\n      revert\n        /* \"#utility.yul\":1605:1668   */\n    tag_244:\n        /* \"#utility.yul\":1552:1674   */\n      pop\n      jump\t// out\n        /* \"#utility.yul\":1680:1819   */\n    tag_202:\n        /* \"#utility.yul\":1726:1731   */\n      0x00\n        /* \"#utility.yul\":1764:1770   */\n      dup2\n        /* \"#utility.yul\":1751:1771   */\n      calldataload\n        /* \"#utility.yul\":1742:1771   */\n      swap1\n      pop\n        /* \"#utility.yul\":1780:1813   */\n      tag_246\n        /* \"#utility.yul\":1807:1812   */\n      dup2\n        /* \"#utility.yul\":1780:1813   */\n      tag_201\n      jump\t// in\n    tag_246:\n        /* \"#utility.yul\":1680:1819   */\n      swap3\n      swap2\n      pop\n      pop\n      jump\t// out\n        /* \"#utility.yul\":1825:2299   */\n    tag_36:\n        /* \"#utility.yul\":1893:1899   */\n      0x00\n        /* \"#utility.yul\":1901:1907   */\n      dup1\n        /* \"#utility.yul\":1950:1952   */\n      0x40\n        /* \"#utility.yul\":1938:1947   */\n      dup4\n        /* \"#utility.yul\":1929:1936   */\n      dup6\n        /* \"#utility.yul\":1925:1948   */\n      sub\n        /* \"#utility.yul\":1921:1953   */\n      slt\n        /* \"#utility.yul\":1918:2037   */\n      iszero\n      tag_248\n      jumpi\n        /* \"#utility.yul\":1956:2035   */\n      tag_249\n      tag_196\n      jump\t// in\n    tag_249:\n        /* \"#utility.yul\":1918:2037   */\n    tag_248:\n        /* \"#utility.yul\":2076:2077   */\n      0x00\n        /* \"#utility.yul\":2101:2154   */\n      tag_250\n        /* \"#utility.yul\":2146:2153   */\n      dup6\n        /* \"#utility.yul\":2137:2143   */\n      dup3\n        /* \"#utility.yul\":2126:2135   */\n      dup7\n        /* \"#utility.yul\":2122:2144   */\n      add\n        /* \"#utility.yul\":2101:2154   */\n      tag_199\n      jump\t// in\n    tag_250:\n        /* \"#utility.yul\":2091:2154   */\n      swap3\n      pop\n        /* \"#utility.yul\":2047:2164   */\n      pop\n        /* \"#utility.yul\":2203:2205   */\n      0x20\n        /* \"#utility.yul\":2229:2282   */\n      tag_251\n        /* \"#utility.yul\":2274:2281   */\n      dup6\n        /* \"#utility.yul\":2265:2271   */\n      dup3\n        /* \"#utility.yul\":2254:2263   */\n      dup7\n        /* \"#utility.yul\":2250:2272   */\n      add\n        /* \"#utility.yul\":2229:2282   */\n      tag_202\n      jump\t// in\n    tag_251:\n        /* \"#utility.yul\":2219:2282   */\n      swap2\n      pop\n        /* \"#utility.yul\":2174:2292   */\n      pop\n        /* \"#utility.yul\":1825:2299   */\n      swap3\n      pop\n      swap3\n      swap1\n      pop\n      jump\t// out\n        /* \"#utility.yul\":2305:2423   */\n    tag_203:\n        /* \"#utility.yul\":2392:2416   */\n      tag_253\n        /* \"#utility.yul\":2410:2415   */\n      dup2\n        /* \"#utility.yul\":2392:2416   */\n      tag_200\n      jump\t// in\n    tag_253:\n        /* \"#utility.yul\":2387:2390   */\n      dup3\n        /* \"#utility.yul\":2380:2417   */\n      mstore\n        /* \"#utility.yul\":2305:2423   */\n      pop\n      pop\n      jump\t// out\n        /* \"#utility.yul\":2429:2651   */\n    tag_45:\n        /* \"#utility.yul\":2522:2526   */\n      0x00\n        /* \"#utility.yul\":2560:2562   */\n      0x20\n        /* \"#utility.yul\":2549:2558   */\n      dup3\n        /* \"#utility.yul\":2545:2563   */\n      add\n        /* \"#utility.yul\":2537:2563   */\n      swap1\n      pop\n        /* \"#utility.yul\":2573:2644   */\n      tag_255\n        /* \"#utility.yul\":2641:2642   */\n      0x00\n        /* \"#utility.yul\":2630:2639   */\n      dup4\n        /* \"#utility.yul\":2626:2643   */\n      add\n        /* \"#utility.yul\":2617:2623   */\n      dup5\n        /* \"#utility.yul\":2573:2644   */\n      tag_203\n      jump\t// in\n    tag_255:\n        /* \"#utility.yul\":2429:2651   */\n      swap3\n      swap2\n      pop\n      pop\n      jump\t// out\n        /* \"#utility.yul\":2657:2783   */\n    tag_204:\n        /* \"#utility.yul\":2694:2701   */\n      0x00\n        /* \"#utility.yul\":2734:2776   */\n      0xffffffffffffffffffffffffffffffffffffffff\n        /* \"#utility.yul\":2727:2732   */\n      dup3\n        /* \"#utility.yul\":2723:2777   */\n      and\n        /* \"#utility.yul\":2712:2777   */\n      swap1\n      pop\n        /* \"#utility.yul\":2657:2783   */\n      swap2\n      swap1\n      pop\n      jump\t// out\n        /* \"#utility.yul\":2789:2893   */\n    tag_205:\n        /* \"#utility.yul\":2834:2841   */\n      0x00\n        /* \"#utility.yul\":2863:2887   */\n      tag_258\n        /* \"#utility.yul\":2881:2886   */\n      dup3\n        /* \"#utility.yul\":2863:2887   */\n      tag_204\n      jump\t// in\n    tag_258:\n        /* \"#utility.yul\":2852:2887   */\n      swap1\n      pop\n        /* \"#utility.yul\":2789:2893   */\n      swap2\n      swap1\n      pop\n      jump\t// out\n        /* \"#utility.yul\":2899:3041   */\n    tag_206:\n        /* \"#utility.yul\":3002:3034   */\n      tag_260\n        /* \"#utility.yul\":3028:3033   */\n      dup2\n        /* \"#utility.yul\":3002:3034   */\n      tag_205\n      jump\t// in\n    tag_260:\n        /* \"#utility.yul\":2997:3000   */\n      dup3\n        /* \"#utility.yul\":2990:3035   */\n      mstore\n        /* \"#utility.yul\":2899:3041   */\n      pop\n      pop\n      jump\t// out\n        /* \"#utility.yul\":3047:3301   */\n    tag_51:\n        /* \"#utility.yul\":3156:3160   */\n      0x00\n        /* \"#utility.yul\":3194:3196   */\n      0x20\n        /* \"#utility.yul\":3183:3192   */\n      dup3\n        /* \"#utility.yul\":3179:3197   */\n      add\n        /* \"#utility.yul\":3171:3197   */\n      swap1\n      pop\n        /* \"#utility.yul\":3207:3294   */\n      tag_262\n        /* \"#utility.yul\":3291:3292   */\n      0x00\n        /* \"#utility.yul\":3280:3289   */\n      dup4\n        /* \"#utility.yul\":3276:3293   */\n      add\n        /* \"#utility.yul\":3267:3273   */\n      dup5\n        /* \"#utility.yul\":3207:3294   */\n      tag_206\n      jump\t// in\n    tag_262:\n        /* \"#utility.yul\":3047:3301   */\n      swap3\n      swap2\n      pop\n      pop\n      jump\t// out\n        /* \"#utility.yul\":3307:3636   */\n    tag_89:\n        /* \"#utility.yul\":3366:3372   */\n      0x00\n        /* \"#utility.yul\":3415:3417   */\n      0x20\n        /* \"#utility.yul\":3403:3412   */\n      dup3\n        /* \"#utility.yul\":3394:3401   */\n      dup5\n        /* \"#utility.yul\":3390:3413   */\n      sub\n        /* \"#utility.yul\":3386:3418   */\n      slt\n        /* \"#utility.yul\":3383:3502   */\n      iszero\n      tag_264\n      jumpi\n        /* \"#utility.yul\":3421:3500   */\n      tag_265\n      tag_196\n      jump\t// in\n    tag_265:\n        /* \"#utility.yul\":3383:3502   */\n    tag_264:\n        /* \"#utility.yul\":3541:3542   */\n      0x00\n        /* \"#utility.yul\":3566:3619   */\n      tag_266\n        /* \"#utility.yul\":3611:3618   */\n      dup5\n        /* \"#utility.yul\":3602:3608   */\n      dup3\n        /* \"#utility.yul\":3591:3600   */\n      dup6\n        /* \"#utility.yul\":3587:3609   */\n      add\n        /* \"#utility.yul\":3566:3619   */\n      tag_202\n      jump\t// in\n    tag_266:\n        /* \"#utility.yul\":3556:3619   */\n      swap2\n      pop\n        /* \"#utility.yul\":3512:3629   */\n      pop\n        /* \"#utility.yul\":3307:3636   */\n      swap3\n      swap2\n      pop\n      pop\n      jump\t// out\n        /* \"#utility.yul\":3642:3811   */\n    tag_207:\n        /* \"#utility.yul\":3726:3737   */\n      0x00\n        /* \"#utility.yul\":3760:3766   */\n      dup3\n        /* \"#utility.yul\":3755:3758   */\n      dup3\n        /* \"#utility.yul\":3748:3767   */\n      mstore\n        /* \"#utility.yul\":3800:3804   */\n      0x20\n        /* \"#utility.yul\":3795:3798   */\n      dup3\n        /* \"#utility.yul\":3791:3805   */\n      add\n        /* \"#utility.yul\":3776:3805   */\n      swap1\n      pop\n        /* \"#utility.yul\":3642:3811   */\n      swap3\n      swap2\n      pop\n      pop\n      jump\t// out\n        /* \"#utility.yul\":3817:3984   */\n    tag_208:\n        /* \"#utility.yul\":3957:3976   */\n      0x4e6f742052657665616c20506861736521000000000000000000000000000000\n        /* \"#utility.yul\":3953:3954   */\n      0x00\n        /* \"#utility.yul\":3945:3951   */\n      dup3\n        /* \"#utility.yul\":3941:3955   */\n      add\n        /* \"#utility.yul\":3934:3977   */\n      mstore\n        /* \"#utility.yul\":3817:3984   */\n      pop\n      jump\t// out\n        /* \"#utility.yul\":3990:4356   */\n    tag_209:\n        /* \"#utility.yul\":4132:4135   */\n      0x00\n        /* \"#utility.yul\":4153:4220   */\n      tag_270\n        /* \"#utility.yul\":4217:4219   */\n      0x11\n        /* \"#utility.yul\":4212:4215   */\n      dup4\n        /* \"#utility.yul\":4153:4220   */\n      tag_207\n      jump\t// in\n    tag_270:\n        /* \"#utility.yul\":4146:4220   */\n      swap2\n      pop\n        /* \"#utility.yul\":4229:4322   */\n      tag_271\n        /* \"#utility.yul\":4318:4321   */\n      dup3\n        /* \"#utility.yul\":4229:4322   */\n      tag_208\n      jump\t// in\n    tag_271:\n        /* \"#utility.yul\":4347:4349   */\n      0x20\n        /* \"#utility.yul\":4342:4345   */\n      dup3\n        /* \"#utility.yul\":4338:4350   */\n      add\n        /* \"#utility.yul\":4331:4350   */\n      swap1\n      pop\n        /* \"#utility.yul\":3990:4356   */\n      swap2\n      swap1\n      pop\n      jump\t// out\n        /* \"#utility.yul\":4362:4781   */\n    tag_96:\n        /* \"#utility.yul\":4528:4532   */\n      0x00\n        /* \"#utility.yul\":4566:4568   */\n      0x20\n        /* \"#utility.yul\":4555:4564   */\n      dup3\n        /* \"#utility.yul\":4551:4569   */\n      add\n        /* \"#utility.yul\":4543:4569   */\n      swap1\n      pop\n        /* \"#utility.yul\":4615:4624   */\n      dup2\n        /* \"#utility.yul\":4609:4613   */\n      dup2\n        /* \"#utility.yul\":4605:4625   */\n      sub\n        /* \"#utility.yul\":4601:4602   */\n      0x00\n        /* \"#utility.yul\":4590:4599   */\n      dup4\n        /* \"#utility.yul\":4586:4603   */\n      add\n        /* \"#utility.yul\":4579:4626   */\n      mstore\n        /* \"#utility.yul\":4643:4774   */\n      tag_273\n        /* \"#utility.yul\":4769:4773   */\n      dup2\n        /* \"#utility.yul\":4643:4774   */\n      tag_209\n      jump\t// in\n    tag_273:\n        /* \"#utility.yul\":4635:4774   */\n      swap1\n      pop\n        /* \"#utility.yul\":4362:4781   */\n      swap2\n      swap1\n      pop\n      jump\t// out\n        /* \"#utility.yul\":4787:4866   */\n    tag_210:\n        /* \"#utility.yul\":4826:4833   */\n      0x00\n        /* \"#utility.yul\":4855:4860   */\n      dup2\n        /* \"#utility.yul\":4844:4860   */\n      swap1\n      pop\n        /* \"#utility.yul\":4787:4866   */\n      swap2\n      swap1\n      pop\n      jump\t// out\n        /* \"#utility.yul\":4872:5029   */\n    tag_211:\n        /* \"#utility.yul\":4977:5022   */\n      tag_276\n        /* \"#utility.yul\":4997:5021   */\n      tag_277\n        /* \"#utility.yul\":5015:5020   */\n      dup3\n        /* \"#utility.yul\":4997:5021   */\n      tag_191\n      jump\t// in\n    tag_277:\n        /* \"#utility.yul\":4977:5022   */\n      tag_210\n      jump\t// in\n    tag_276:\n        /* \"#utility.yul\":4972:4975   */\n      dup3\n        /* \"#utility.yul\":4965:5023   */\n      mstore\n        /* \"#utility.yul\":4872:5029   */\n      pop\n      pop\n      jump\t// out\n        /* \"#utility.yul\":5035:5114   */\n    tag_212:\n        /* \"#utility.yul\":5074:5081   */\n      0x00\n        /* \"#utility.yul\":5103:5108   */\n      dup2\n        /* \"#utility.yul\":5092:5108   */\n      swap1\n      pop\n        /* \"#utility.yul\":5035:5114   */\n      swap2\n      swap1\n      pop\n      jump\t// out\n        /* \"#utility.yul\":5120:5277   */\n    tag_213:\n        /* \"#utility.yul\":5225:5270   */\n      tag_280\n        /* \"#utility.yul\":5245:5269   */\n      tag_281\n        /* \"#utility.yul\":5263:5268   */\n      dup3\n        /* \"#utility.yul\":5245:5269   */\n      tag_200\n      jump\t// in\n    tag_281:\n        /* \"#utility.yul\":5225:5270   */\n      tag_212\n      jump\t// in\n    tag_280:\n        /* \"#utility.yul\":5220:5223   */\n      dup3\n        /* \"#utility.yul\":5213:5271   */\n      mstore\n        /* \"#utility.yul\":5120:5277   */\n      pop\n      pop\n      jump\t// out\n        /* \"#utility.yul\":5283:5680   */\n    tag_101:\n        /* \"#utility.yul\":5423:5426   */\n      0x00\n        /* \"#utility.yul\":5438:5513   */\n      tag_283\n        /* \"#utility.yul\":5509:5512   */\n      dup3\n        /* \"#utility.yul\":5500:5506   */\n      dup6\n        /* \"#utility.yul\":5438:5513   */\n      tag_211\n      jump\t// in\n    tag_283:\n        /* \"#utility.yul\":5538:5540   */\n      0x20\n        /* \"#utility.yul\":5533:5536   */\n      dup3\n        /* \"#utility.yul\":5529:5541   */\n      add\n        /* \"#utility.yul\":5522:5541   */\n      swap2\n      pop\n        /* \"#utility.yul\":5551:5626   */\n      tag_284\n        /* \"#utility.yul\":5622:5625   */\n      dup3\n        /* \"#utility.yul\":5613:5619   */\n      dup5\n        /* \"#utility.yul\":5551:5626   */\n      tag_213\n      jump\t// in\n    tag_284:\n        /* \"#utility.yul\":5651:5653   */\n      0x20\n        /* \"#utility.yul\":5646:5649   */\n      dup3\n        /* \"#utility.yul\":5642:5654   */\n      add\n        /* \"#utility.yul\":5635:5654   */\n      swap2\n      pop\n        /* \"#utility.yul\":5671:5674   */\n      dup2\n        /* \"#utility.yul\":5664:5674   */\n      swap1\n      pop\n        /* \"#utility.yul\":5283:5680   */\n      swap4\n      swap3\n      pop\n      pop\n      pop\n      jump\t// out\n        /* \"#utility.yul\":5686:5846   */\n    tag_214:\n        /* \"#utility.yul\":5826:5838   */\n      0x546f6f204561726c792100000000000000000000000000000000000000000000\n        /* \"#utility.yul\":5822:5823   */\n      0x00\n        /* \"#utility.yul\":5814:5820   */\n      dup3\n        /* \"#utility.yul\":5810:5824   */\n      add\n        /* \"#utility.yul\":5803:5839   */\n      mstore\n        /* \"#utility.yul\":5686:5846   */\n      pop\n      jump\t// out\n        /* \"#utility.yul\":5852:6218   */\n    tag_215:\n        /* \"#utility.yul\":5994:5997   */\n      0x00\n        /* \"#utility.yul\":6015:6082   */\n      tag_287\n        /* \"#utility.yul\":6079:6081   */\n      0x0a\n        /* \"#utility.yul\":6074:6077   */\n      dup4\n        /* \"#utility.yul\":6015:6082   */\n      tag_207\n      jump\t// in\n    tag_287:\n        /* \"#utility.yul\":6008:6082   */\n      swap2\n      pop\n        /* \"#utility.yul\":6091:6184   */\n      tag_288\n        /* \"#utility.yul\":6180:6183   */\n      dup3\n        /* \"#utility.yul\":6091:6184   */\n      tag_214\n      jump\t// in\n    tag_288:\n        /* \"#utility.yul\":6209:6211   */\n      0x20\n        /* \"#utility.yul\":6204:6207   */\n      dup3\n        /* \"#utility.yul\":6200:6212   */\n      add\n        /* \"#utility.yul\":6193:6212   */\n      swap1\n      pop\n        /* \"#utility.yul\":5852:6218   */\n      swap2\n      swap1\n      pop\n      jump\t// out\n        /* \"#utility.yul\":6224:6643   */\n    tag_122:\n        /* \"#utility.yul\":6390:6394   */\n      0x00\n        /* \"#utility.yul\":6428:6430   */\n      0x20\n        /* \"#utility.yul\":6417:6426   */\n      dup3\n        /* \"#utility.yul\":6413:6431   */\n      add\n        /* \"#utility.yul\":6405:6431   */\n      swap1\n      pop\n        /* \"#utility.yul\":6477:6486   */\n      dup2\n        /* \"#utility.yul\":6471:6475   */\n      dup2\n        /* \"#utility.yul\":6467:6487   */\n      sub\n        /* \"#utility.yul\":6463:6464   */\n      0x00\n        /* \"#utility.yul\":6452:6461   */\n      dup4\n        /* \"#utility.yul\":6448:6465   */\n      add\n        /* \"#utility.yul\":6441:6488   */\n      mstore\n        /* \"#utility.yul\":6505:6636   */\n      tag_290\n        /* \"#utility.yul\":6631:6635   */\n      dup2\n        /* \"#utility.yul\":6505:6636   */\n      tag_215\n      jump\t// in\n    tag_290:\n        /* \"#utility.yul\":6497:6636   */\n      swap1\n      pop\n        /* \"#utility.yul\":6224:6643   */\n      swap2\n      swap1\n      pop\n      jump\t// out\n        /* \"#utility.yul\":6649:6808   */\n    tag_216:\n        /* \"#utility.yul\":6789:6800   */\n      0x546f6f204c617465210000000000000000000000000000000000000000000000\n        /* \"#utility.yul\":6785:6786   */\n      0x00\n        /* \"#utility.yul\":6777:6783   */\n      dup3\n        /* \"#utility.yul\":6773:6787   */\n      add\n        /* \"#utility.yul\":6766:6801   */\n      mstore\n        /* \"#utility.yul\":6649:6808   */\n      pop\n      jump\t// out\n        /* \"#utility.yul\":6814:7179   */\n    tag_217:\n        /* \"#utility.yul\":6956:6959   */\n      0x00\n        /* \"#utility.yul\":6977:7043   */\n      tag_293\n        /* \"#utility.yul\":7041:7042   */\n      0x09\n        /* \"#utility.yul\":7036:7039   */\n      dup4\n        /* \"#utility.yul\":6977:7043   */\n      tag_207\n      jump\t// in\n    tag_293:\n        /* \"#utility.yul\":6970:7043   */\n      swap2\n      pop\n        /* \"#utility.yul\":7052:7145   */\n      tag_294\n        /* \"#utility.yul\":7141:7144   */\n      dup3\n        /* \"#utility.yul\":7052:7145   */\n      tag_216\n      jump\t// in\n    tag_294:\n        /* \"#utility.yul\":7170:7172   */\n      0x20\n        /* \"#utility.yul\":7165:7168   */\n      dup3\n        /* \"#utility.yul\":7161:7173   */\n      add\n        /* \"#utility.yul\":7154:7173   */\n      swap1\n      pop\n        /* \"#utility.yul\":6814:7179   */\n      swap2\n      swap1\n      pop\n      jump\t// out\n        /* \"#utility.yul\":7185:7604   */\n    tag_126:\n        /* \"#utility.yul\":7351:7355   */\n      0x00\n        /* \"#utility.yul\":7389:7391   */\n      0x20\n        /* \"#utility.yul\":7378:7387   */\n      dup3\n        /* \"#utility.yul\":7374:7392   */\n      add\n        /* \"#utility.yul\":7366:7392   */\n      swap1\n      pop\n        /* \"#utility.yul\":7438:7447   */\n      dup2\n        /* \"#utility.yul\":7432:7436   */\n      dup2\n        /* \"#utility.yul\":7428:7448   */\n      sub\n        /* \"#utility.yul\":7424:7425   */\n      0x00\n        /* \"#utility.yul\":7413:7422   */\n      dup4\n        /* \"#utility.yul\":7409:7426   */\n      add\n        /* \"#utility.yul\":7402:7449   */\n      mstore\n        /* \"#utility.yul\":7466:7597   */\n      tag_296\n        /* \"#utility.yul\":7592:7596   */\n      dup2\n        /* \"#utility.yul\":7466:7597   */\n      tag_217\n      jump\t// in\n    tag_296:\n        /* \"#utility.yul\":7458:7597   */\n      swap1\n      pop\n        /* \"#utility.yul\":7185:7604   */\n      swap2\n      swap1\n      pop\n      jump\t// out\n        /* \"#utility.yul\":7610:7777   */\n    tag_218:\n        /* \"#utility.yul\":7750:7769   */\n      0x4e6f7420416374696f6e20506861736521000000000000000000000000000000\n        /* \"#utility.yul\":7746:7747   */\n      0x00\n        /* \"#utility.yul\":7738:7744   */\n      dup3\n        /* \"#utility.yul\":7734:7748   */\n      add\n        /* \"#utility.yul\":7727:7770   */\n      mstore\n        /* \"#utility.yul\":7610:7777   */\n      pop\n      jump\t// out\n        /* \"#utility.yul\":7783:8149   */\n    tag_219:\n        /* \"#utility.yul\":7925:7928   */\n      0x00\n        /* \"#utility.yul\":7946:8013   */\n      tag_299\n        /* \"#utility.yul\":8010:8012   */\n      0x11\n        /* \"#utility.yul\":8005:8008   */\n      dup4\n        /* \"#utility.yul\":7946:8013   */\n      tag_207\n      jump\t// in\n    tag_299:\n        /* \"#utility.yul\":7939:8013   */\n      swap2\n      pop\n        /* \"#utility.yul\":8022:8115   */\n      tag_300\n        /* \"#utility.yul\":8111:8114   */\n      dup3\n        /* \"#utility.yul\":8022:8115   */\n      tag_218\n      jump\t// in\n    tag_300:\n        /* \"#utility.yul\":8140:8142   */\n      0x20\n        /* \"#utility.yul\":8135:8138   */\n      dup3\n        /* \"#utility.yul\":8131:8143   */\n      add\n        /* \"#utility.yul\":8124:8143   */\n      swap1\n      pop\n        /* \"#utility.yul\":7783:8149   */\n      swap2\n      swap1\n      pop\n      jump\t// out\n        /* \"#utility.yul\":8155:8574   */\n    tag_150:\n        /* \"#utility.yul\":8321:8325   */\n      0x00\n        /* \"#utility.yul\":8359:8361   */\n      0x20\n        /* \"#utility.yul\":8348:8357   */\n      dup3\n        /* \"#utility.yul\":8344:8362   */\n      add\n        /* \"#utility.yul\":8336:8362   */\n      swap1\n      pop\n        /* \"#utility.yul\":8408:8417   */\n      dup2\n        /* \"#utility.yul\":8402:8406   */\n      dup2\n        /* \"#utility.yul\":8398:8418   */\n      sub\n        /* \"#utility.yul\":8394:8395   */\n      0x00\n        /* \"#utility.yul\":8383:8392   */\n      dup4\n        /* \"#utility.yul\":8379:8396   */\n      add\n        /* \"#utility.yul\":8372:8419   */\n      mstore\n        /* \"#utility.yul\":8436:8567   */\n      tag_302\n        /* \"#utility.yul\":8562:8566   */\n      dup2\n        /* \"#utility.yul\":8436:8567   */\n      tag_219\n      jump\t// in\n    tag_302:\n        /* \"#utility.yul\":8428:8567   */\n      swap1\n      pop\n        /* \"#utility.yul\":8155:8574   */\n      swap2\n      swap1\n      pop\n      jump\t// out\n        /* \"#utility.yul\":8580:8760   */\n    tag_220:\n        /* \"#utility.yul\":8628:8705   */\n      0x4e487b7100000000000000000000000000000000000000000000000000000000\n        /* \"#utility.yul\":8625:8626   */\n      0x00\n        /* \"#utility.yul\":8618:8706   */\n      mstore\n        /* \"#utility.yul\":8725:8729   */\n      0x12\n        /* \"#utility.yul\":8722:8723   */\n      0x04\n        /* \"#utility.yul\":8715:8730   */\n      mstore\n        /* \"#utility.yul\":8749:8753   */\n      0x24\n        /* \"#utility.yul\":8746:8747   */\n      0x00\n        /* \"#utility.yul\":8739:8754   */\n      revert\n        /* \"#utility.yul\":8952:9137   */\n    tag_168:\n        /* \"#utility.yul\":8992:8993   */\n      0x00\n        /* \"#utility.yul\":9009:9029   */\n      tag_306\n        /* \"#utility.yul\":9027:9028   */\n      dup3\n        /* \"#utility.yul\":9009:9029   */\n      tag_191\n      jump\t// in\n    tag_306:\n        /* \"#utility.yul\":9004:9029   */\n      swap2\n      pop\n        /* \"#utility.yul\":9043:9063   */\n      tag_307\n        /* \"#utility.yul\":9061:9062   */\n      dup4\n        /* \"#utility.yul\":9043:9063   */\n      tag_191\n      jump\t// in\n    tag_307:\n        /* \"#utility.yul\":9038:9063   */\n      swap3\n      pop\n        /* \"#utility.yul\":9082:9083   */\n      dup3\n        /* \"#utility.yul\":9072:9107   */\n      tag_308\n      jumpi\n        /* \"#utility.yul\":9087:9105   */\n      tag_309\n      tag_220\n      jump\t// in\n    tag_309:\n        /* \"#utility.yul\":9072:9107   */\n    tag_308:\n        /* \"#utility.yul\":9129:9130   */\n      dup3\n        /* \"#utility.yul\":9126:9127   */\n      dup3\n        /* \"#utility.yul\":9122:9131   */\n      div\n        /* \"#utility.yul\":9117:9131   */\n      swap1\n      pop\n        /* \"#utility.yul\":8952:9137   */\n      swap3\n      swap2\n      pop\n      pop\n      jump\t// out\n\n    auxdata: 0xa26469706673582212204d3e06da66cbfecb5a6cf859494a5c8c59680052dc24d55d4e3690df54a65e0064736f6c63430008160033\n}\n",
				"bytecode": {
					"linkReferences": {},
					"object": "60806040526040516200167238038062001672833981810160405281019062000029919062000255565b3360035f6101000a81548173ffffffffffffffffffffffffffffffffffffffff021916908373ffffffffffffffffffffffffffffffffffffffff160217905550346004819055508260055f6101000a81548173ffffffffffffffffffffffffffffffffffffffff021916908373ffffffffffffffffffffffffffffffffffffffff16021790555081600860026101000a81548173ffffffffffffffffffffffffffffffffffffffff021916908373ffffffffffffffffffffffffffffffffffffffff1602179055508042620000ff9190620002db565b5f81905550805f54620001139190620002db565b60018190555080600154620001299190620002db565b6002819055505f600b60026101000a81548160ff0219169083151502179055505f60085f6101000a81548160ff0219169083151502179055505f600b5f6101000a81548160ff0219169083151502179055505f600860016101000a81548160ff0219169083151502179055505f600b60016101000a81548160ff02191690831515021790555050505062000315565b5f80fd5b5f73ffffffffffffffffffffffffffffffffffffffff82169050919050565b5f620001e782620001bc565b9050919050565b620001f981620001db565b811462000204575f80fd5b50565b5f815190506200021781620001ee565b92915050565b5f819050919050565b62000231816200021d565b81146200023c575f80fd5b50565b5f815190506200024f8162000226565b92915050565b5f805f606084860312156200026f576200026e620001b8565b5b5f6200027e8682870162000207565b9350506020620002918682870162000207565b9250506040620002a4868287016200023f565b9150509250925092565b7f4e487b71000000000000000000000000000000000000000000000000000000005f52601160045260245ffd5b5f620002e7826200021d565b9150620002f4836200021d565b92508282019050808211156200030f576200030e620002ae565b5b92915050565b61134f80620003235f395ff3fe608060405234801561000f575f80fd5b506004361061012a575f3560e01c80636b423f38116100ab578063c6e1d48c1161006f578063c6e1d48c146102d8578063d0b9546c146102f6578063d6edbc0f14610314578063edbbd5c614610332578063fba23d2a146103505761012a565b80636b423f38146102565780638b8fbd9214610260578063a6e664771461027e578063afbf7f181461029c578063b1ed37b1146102ba5761012a565b80633ccfd60b116100f25780633ccfd60b146101d4578063481c6a75146101de5780634980e1be146101fc5780634be1c7961461021a578063614fc508146102385761012a565b8063228cb7331461012e57806323f790ce1461014c5780632a9a82411461016a5780632c6c005514610186578063337ee418146101a4575b5f80fd5b61013661036c565b6040516101439190610f0b565b60405180910390f35b610154610372565b6040516101619190610f3e565b60405180910390f35b610184600480360381019061017f9190610fb8565b610385565b005b61018e6105e2565b60405161019b9190610f3e565b60405180910390f35b6101be60048036038101906101b99190610fb8565b6105f4565b6040516101cb9190611005565b60405180910390f35b6101dc610626565b005b6101e66108a5565b6040516101f3919061105d565b60405180910390f35b6102046108ca565b6040516102119190610f0b565b60405180910390f35b6102226108ce565b60405161022f9190610f0b565b60405180910390f35b6102406108d3565b60405161024d919061105d565b60405180910390f35b61025e6108f8565b005b610268610a08565b6040516102759190610f0b565b60405180910390f35b610286610a0d565b6040516102939190610f0b565b60405180910390f35b6102a4610a13565b6040516102b19190610f3e565b60405180910390f35b6102c2610a25565b6040516102cf919061105d565b60405180910390f35b6102e0610a4b565b6040516102ed9190610f3e565b60405180910390f35b6102fe610a5e565b60405161030b9190610f0b565b60405180910390f35b61031c610a63565b6040516103299190610f0b565b60405180910390f35b61033a610a69565b6040516103479190610f3e565b60405180910390f35b61036a60048036038101906103659190611076565b610a7c565b005b60045481565b600860019054906101000a900460ff1681565b60015442111580156103af5750600b60029054906101000a900460ff16806103ae57505f544210155b5b6103ee576040517f08c379a00000000000000000000000000000000000000000000000000000000081526004016103e5906110fb565b60405180910390fd5b60055f9054906101000a900473ffffffffffffffffffffffffffffffffffffffff1673ffffffffffffffffffffffffffffffffffffffff163373ffffffffffffffffffffffffffffffffffffffff16148015610455575060085f9054906101000a900460ff165b156104cc57818160405160200161046d929190611159565b6040516020818303038152906040528051906020012060065f0154036104c757816006600101819055506104a5600660010154610c4a565b156104c6576001600860016101000a81548160ff0219169083151502179055505b5b6105a8565b600860029054906101000a900473ffffffffffffffffffffffffffffffffffffffff1673ffffffffffffffffffffffffffffffffffffffff163373ffffffffffffffffffffffffffffffffffffffff161480156105345750600b5f9054906101000a900460ff165b156105a757818160405160200161054c929190611159565b6040516020818303038152906040528051906020012060095f0154036105a65781600960010181905550610584600960010154610c4a565b156105a5576001600b60016101000a81548160ff0219169083151502179055505b5b5b5b600860019054906101000a900460ff1680156105d05750600b60019054906101000a900460ff165b156105de576105dd610c7b565b5b5050565b600b5f9054906101000a900460ff1681565b5f8282604051602001610608929190611159565b60405160208183030381529060405280519060200120905092915050565b60015480421161066b576040517f08c379a0000000000000000000000000000000000000000000000000000000008152600401610662906111ce565b60405180910390fd5b6002548042106106b0576040517f08c379a00000000000000000000000000000000000000000000000000000000081526004016106a790611236565b60405180910390fd5b5f60055f9054906101000a900473ffffffffffffffffffffffffffffffffffffffff1673ffffffffffffffffffffffffffffffffffffffff163373ffffffffffffffffffffffffffffffffffffffff161480156107195750600860019054906101000a900460ff165b156107a957600b60019054906101000a900460ff166107a45760045490505f60048190555060055f9054906101000a900473ffffffffffffffffffffffffffffffffffffffff1673ffffffffffffffffffffffffffffffffffffffff166108fc8290811502906040515f60405180830381858888f193505050501580156107a2573d5f803e3d5ffd5b505b6108a0565b600860029054906101000a900473ffffffffffffffffffffffffffffffffffffffff1673ffffffffffffffffffffffffffffffffffffffff163373ffffffffffffffffffffffffffffffffffffffff161480156108125750600b60019054906101000a900460ff165b1561089f57600860019054906101000a900460ff1661089e5760045490505f600481905550600860029054906101000a900473ffffffffffffffffffffffffffffffffffffffff1673ffffffffffffffffffffffffffffffffffffffff166108fc8290811502906040515f60405180830381858888f1935050505015801561089c573d5f803e3d5ffd5b505b5b5b505050565b60035f9054906101000a900473ffffffffffffffffffffffffffffffffffffffff1681565b5f81565b600281565b60055f9054906101000a900473ffffffffffffffffffffffffffffffffffffffff1681565b60025480421161093d576040517f08c379a0000000000000000000000000000000000000000000000000000000008152600401610934906111ce565b60405180910390fd5b60035f9054906101000a900473ffffffffffffffffffffffffffffffffffffffff1673ffffffffffffffffffffffffffffffffffffffff163373ffffffffffffffffffffffffffffffffffffffff1603610a05575f60045490505f60048190555060035f9054906101000a900473ffffffffffffffffffffffffffffffffffffffff1673ffffffffffffffffffffffffffffffffffffffff166108fc8290811502906040515f60405180830381858888f19350505050158015610a02573d5f803e3d5ffd5b50505b50565b600181565b60015481565b60085f9054906101000a900460ff1681565b600860029054906101000a900473ffffffffffffffffffffffffffffffffffffffff1681565b600b60029054906101000a900460ff1681565b5f5481565b60025481565b600b60019054906101000a900460ff1681565b5f5442101580610a985750600b60029054906101000a900460ff165b15610ad8576040517f08c379a0000000000000000000000000000000000000000000000000000000008152600401610acf9061129e565b60405180910390fd5b60055f9054906101000a900473ffffffffffffffffffffffffffffffffffffffff1673ffffffffffffffffffffffffffffffffffffffff163373ffffffffffffffffffffffffffffffffffffffff16148015610b40575060085f9054906101000a900460ff16155b15610b6d578060065f0181905550600160085f6101000a81548160ff021916908315150217905550610c00565b600860029054906101000a900473ffffffffffffffffffffffffffffffffffffffff1673ffffffffffffffffffffffffffffffffffffffff163373ffffffffffffffffffffffffffffffffffffffff16148015610bd65750600b5f9054906101000a900460ff16155b15610bff578060095f01819055506001600b5f6101000a81548160ff0219169083151502179055505b5b60085f9054906101000a900460ff168015610c265750600b5f9054906101000a900460ff165b15610c47576001600b60026101000a81548160ff0219169083151502179055505b50565b5f80821480610c595750600182145b80610c645750600282145b15610c725760019050610c76565b5f90505b919050565b5f610c90600660010154600960010154610e83565b15610d7d576002600454610ca491906112e9565b90505f60048190555060055f9054906101000a900473ffffffffffffffffffffffffffffffffffffffff1673ffffffffffffffffffffffffffffffffffffffff166108fc8290811502906040515f60405180830381858888f19350505050158015610d11573d5f803e3d5ffd5b50600860029054906101000a900473ffffffffffffffffffffffffffffffffffffffff1673ffffffffffffffffffffffffffffffffffffffff166108fc8290811502906040515f60405180830381858888f19350505050158015610d77573d5f803e3d5ffd5b50610e80565b610d91600660010154600960010154610e9e565b15610e0c5760045490505f60048190555060055f9054906101000a900473ffffffffffffffffffffffffffffffffffffffff1673ffffffffffffffffffffffffffffffffffffffff166108fc8290811502906040515f60405180830381858888f19350505050158015610e06573d5f803e3d5ffd5b50610e7f565b60045490505f600481905550600860029054906101000a900473ffffffffffffffffffffffffffffffffffffffff1673ffffffffffffffffffffffffffffffffffffffff166108fc8290811502906040515f60405180830381858888f19350505050158015610e7d573d5f803e3d5ffd5b505b5b50565b5f818303610e945760019050610e98565b5f90505b92915050565b5f8083148015610eae5750600282145b80610ec45750600183148015610ec357505f82145b5b80610edb5750600283148015610eda5750600182145b5b15610ee95760019050610eed565b5f90505b92915050565b5f819050919050565b610f0581610ef3565b82525050565b5f602082019050610f1e5f830184610efc565b92915050565b5f8115159050919050565b610f3881610f24565b82525050565b5f602082019050610f515f830184610f2f565b92915050565b5f80fd5b610f6481610ef3565b8114610f6e575f80fd5b50565b5f81359050610f7f81610f5b565b92915050565b5f819050919050565b610f9781610f85565b8114610fa1575f80fd5b50565b5f81359050610fb281610f8e565b92915050565b5f8060408385031215610fce57610fcd610f57565b5b5f610fdb85828601610f71565b9250506020610fec85828601610fa4565b9150509250929050565b610fff81610f85565b82525050565b5f6020820190506110185f830184610ff6565b92915050565b5f73ffffffffffffffffffffffffffffffffffffffff82169050919050565b5f6110478261101e565b9050919050565b6110578161103d565b82525050565b5f6020820190506110705f83018461104e565b92915050565b5f6020828403121561108b5761108a610f57565b5b5f61109884828501610fa4565b91505092915050565b5f82825260208201905092915050565b7f4e6f742052657665616c205068617365210000000000000000000000000000005f82015250565b5f6110e56011836110a1565b91506110f0826110b1565b602082019050919050565b5f6020820190508181035f830152611112816110d9565b9050919050565b5f819050919050565b61113361112e82610ef3565b611119565b82525050565b5f819050919050565b61115361114e82610f85565b611139565b82525050565b5f6111648285611122565b6020820191506111748284611142565b6020820191508190509392505050565b7f546f6f204561726c7921000000000000000000000000000000000000000000005f82015250565b5f6111b8600a836110a1565b91506111c382611184565b602082019050919050565b5f6020820190508181035f8301526111e5816111ac565b9050919050565b7f546f6f204c6174652100000000000000000000000000000000000000000000005f82015250565b5f6112206009836110a1565b915061122b826111ec565b602082019050919050565b5f6020820190508181035f83015261124d81611214565b9050919050565b7f4e6f7420416374696f6e205068617365210000000000000000000000000000005f82015250565b5f6112886011836110a1565b915061129382611254565b602082019050919050565b5f6020820190508181035f8301526112b58161127c565b9050919050565b7f4e487b71000000000000000000000000000000000000000000000000000000005f52601260045260245ffd5b5f6112f382610ef3565b91506112fe83610ef3565b92508261130e5761130d6112bc565b5b82820490509291505056fea26469706673582212204d3e06da66cbfecb5a6cf859494a5c8c59680052dc24d55d4e3690df54a65e0064736f6c63430008160033",
					"opcodes": "PUSH1 0x80 PUSH1 0x40 MSTORE PUSH1 0x40 MLOAD PUSH3 0x1672 CODESIZE SUB DUP1 PUSH3 0x1672 DUP4 CODECOPY DUP2 DUP2 ADD PUSH1 0x40 MSTORE DUP2 ADD SWAP1 PUSH3 0x29 SWAP2 SWAP1 PUSH3 0x255 JUMP JUMPDEST CALLER PUSH1 0x3 PUSH0 PUSH2 0x100 EXP DUP2 SLOAD DUP2 PUSH20 0xFFFFFFFFFFFFFFFFFFFFFFFFFFFFFFFFFFFFFFFF MUL NOT AND SWAP1 DUP4 PUSH20 0xFFFFFFFFFFFFFFFFFFFFFFFFFFFFFFFFFFFFFFFF AND MUL OR SWAP1 SSTORE POP CALLVALUE PUSH1 0x4 DUP2 SWAP1 SSTORE POP DUP3 PUSH1 0x5 PUSH0 PUSH2 0x100 EXP DUP2 SLOAD DUP2 PUSH20 0xFFFFFFFFFFFFFFFFFFFFFFFFFFFFFFFFFFFFFFFF MUL NOT AND SWAP1 DUP4 PUSH20 0xFFFFFFFFFFFFFFFFFFFFFFFFFFFFFFFFFFFFFFFF AND MUL OR SWAP1 SSTORE POP DUP2 PUSH1 0x8 PUSH1 0x2 PUSH2 0x100 EXP DUP2 SLOAD DUP2 PUSH20 0xFFFFFFFFFFFFFFFFFFFFFFFFFFFFFFFFFFFFFFFF MUL NOT AND SWAP1 DUP4 PUSH20 0xFFFFFFFFFFFFFFFFFFFFFFFFFFFFFFFFFFFFFFFF AND MUL OR SWAP1 SSTORE POP DUP1 TIMESTAMP PUSH3 0xFF SWAP2 SWAP1 PUSH3 0x2DB JUMP JUMPDEST PUSH0 DUP2 SWAP1 SSTORE POP DUP1 PUSH0 SLOAD PUSH3 0x113 SWAP2 SWAP1 PUSH3 0x2DB JUMP JUMPDEST PUSH1 0x1 DUP2 SWAP1 SSTORE POP DUP1 PUSH1 0x1 SLOAD PUSH3 0x129 SWAP2 SWAP1 PUSH3 0x2DB JUMP JUMPDEST PUSH1 0x2 DUP2 SWAP1 SSTORE POP PUSH0 PUSH1 0xB PUSH1 0x2 PUSH2 0x100 EXP DUP2 SLOAD DUP2 PUSH1 0xFF MUL NOT AND SWAP1 DUP4 ISZERO ISZERO MUL OR SWAP1 SSTORE POP PUSH0 PUSH1 0x8 PUSH0 PUSH2 0x100 EXP DUP2 SLOAD DUP2 PUSH1 0xFF MUL NOT AND SWAP1 DUP4 ISZERO ISZERO MUL OR SWAP1 SSTORE POP PUSH0 PUSH1 0xB PUSH0 PUSH2 0x100 EXP DUP2 SLOAD DUP2 PUSH1 0xFF MUL NOT AND SWAP1 DUP4 ISZERO ISZERO MUL OR SWAP1 SSTORE POP PUSH0 PUSH1 0x8 PUSH1 0x1 PUSH2 0x100 EXP DUP2 SLOAD DUP2 PUSH1 0xFF MUL NOT AND SWAP1 DUP4 ISZERO ISZERO MUL OR SWAP1 SSTORE POP PUSH0 PUSH1 0xB PUSH1 0x1 PUSH2 0x100 EXP DUP2 SLOAD DUP2 PUSH1 0xFF MUL NOT AND SWAP1 DUP4 ISZERO ISZERO MUL OR SWAP1 SSTORE POP POP POP POP PUSH3 0x315 JUMP JUMPDEST PUSH0 DUP1 REVERT JUMPDEST PUSH0 PUSH20 0xFFFFFFFFFFFFFFFFFFFFFFFFFFFFFFFFFFFFFFFF DUP3 AND SWAP1 POP SWAP2 SWAP1 POP JUMP JUMPDEST PUSH0 PUSH3 0x1E7 DUP3 PUSH3 0x1BC JUMP JUMPDEST SWAP1 POP SWAP2 SWAP1 POP JUMP JUMPDEST PUSH3 0x1F9 DUP2 PUSH3 0x1DB JUMP JUMPDEST DUP2 EQ PUSH3 0x204 JUMPI PUSH0 DUP1 REVERT JUMPDEST POP JUMP JUMPDEST PUSH0 DUP2 MLOAD SWAP1 POP PUSH3 0x217 DUP2 PUSH3 0x1EE JUMP JUMPDEST SWAP3 SWAP2 POP POP JUMP JUMPDEST PUSH0 DUP2 SWAP1 POP SWAP2 SWAP1 POP JUMP JUMPDEST PUSH3 0x231 DUP2 PUSH3 0x21D JUMP JUMPDEST DUP2 EQ PUSH3 0x23C JUMPI PUSH0 DUP1 REVERT JUMPDEST POP JUMP JUMPDEST PUSH0 DUP2 MLOAD SWAP1 POP PUSH3 0x24F DUP2 PUSH3 0x226 JUMP JUMPDEST SWAP3 SWAP2 POP POP JUMP JUMPDEST PUSH0 DUP1 PUSH0 PUSH1 0x60 DUP5 DUP7 SUB SLT ISZERO PUSH3 0x26F JUMPI PUSH3 0x26E PUSH3 0x1B8 JUMP JUMPDEST JUMPDEST PUSH0 PUSH3 0x27E DUP7 DUP3 DUP8 ADD PUSH3 0x207 JUMP JUMPDEST SWAP4 POP POP PUSH1 0x20 PUSH3 0x291 DUP7 DUP3 DUP8 ADD PUSH3 0x207 JUMP JUMPDEST SWAP3 POP POP PUSH1 0x40 PUSH3 0x2A4 DUP7 DUP3 DUP8 ADD PUSH3 0x23F JUMP JUMPDEST SWAP2 POP POP SWAP3 POP SWAP3 POP SWAP3 JUMP JUMPDEST PUSH32 0x4E487B7100000000000000000000000000000000000000000000000000000000 PUSH0 MSTORE PUSH1 0x11 PUSH1 0x4 MSTORE PUSH1 0x24 PUSH0 REVERT JUMPDEST PUSH0 PUSH3 0x2E7 DUP3 PUSH3 0x21D JUMP JUMPDEST SWAP2 POP PUSH3 0x2F4 DUP4 PUSH3 0x21D JUMP JUMPDEST SWAP3 POP DUP3 DUP3 ADD SWAP1 POP DUP1 DUP3 GT ISZERO PUSH3 0x30F JUMPI PUSH3 0x30E PUSH3 0x2AE JUMP JUMPDEST JUMPDEST SWAP3 SWAP2 POP POP JUMP JUMPDEST PUSH2 0x134F DUP1 PUSH3 0x323 PUSH0 CODECOPY PUSH0 RETURN INVALID PUSH1 0x80 PUSH1 0x40 MSTORE CALLVALUE DUP1 ISZERO PUSH2 0xF JUMPI PUSH0 DUP1 REVERT JUMPDEST POP PUSH1 0x4 CALLDATASIZE LT PUSH2 0x12A JUMPI PUSH0 CALLDATALOAD PUSH1 0xE0 SHR DUP1 PUSH4 0x6B423F38 GT PUSH2 0xAB JUMPI DUP1 PUSH4 0xC6E1D48C GT PUSH2 0x6F JUMPI DUP1 PUSH4 0xC6E1D48C EQ PUSH2 0x2D8 JUMPI DUP1 PUSH4 0xD0B9546C EQ PUSH2 0x2F6 JUMPI DUP1 PUSH4 0xD6EDBC0F EQ PUSH2 0x314 JUMPI DUP1 PUSH4 0xEDBBD5C6 EQ PUSH2 0x332 JUMPI DUP1 PUSH4 0xFBA23D2A EQ PUSH2 0x350 JUMPI PUSH2 0x12A JUMP JUMPDEST DUP1 PUSH4 0x6B423F38 EQ PUSH2 0x256 JUMPI DUP1 PUSH4 0x8B8FBD92 EQ PUSH2 0x260 JUMPI DUP1 PUSH4 0xA6E66477 EQ PUSH2 0x27E JUMPI DUP1 PUSH4 0xAFBF7F18 EQ PUSH2 0x29C JUMPI DUP1 PUSH4 0xB1ED37B1 EQ PUSH2 0x2BA JUMPI PUSH2 0x12A JUMP JUMPDEST DUP1 PUSH4 0x3CCFD60B GT PUSH2 0xF2 JUMPI DUP1 PUSH4 0x3CCFD60B EQ PUSH2 0x1D4 JUMPI DUP1 PUSH4 0x481C6A75 EQ PUSH2 0x1DE JUMPI DUP1 PUSH4 0x4980E1BE EQ PUSH2 0x1FC JUMPI DUP1 PUSH4 0x4BE1C796 EQ PUSH2 0x21A JUMPI DUP1 PUSH4 0x614FC508 EQ PUSH2 0x238 JUMPI PUSH2 0x12A JUMP JUMPDEST DUP1 PUSH4 0x228CB733 EQ PUSH2 0x12E JUMPI DUP1 PUSH4 0x23F790CE EQ PUSH2 0x14C JUMPI DUP1 PUSH4 0x2A9A8241 EQ PUSH2 0x16A JUMPI DUP1 PUSH4 0x2C6C0055 EQ PUSH2 0x186 JUMPI DUP1 PUSH4 0x337EE418 EQ PUSH2 0x1A4 JUMPI JUMPDEST PUSH0 DUP1 REVERT JUMPDEST PUSH2 0x136 PUSH2 0x36C JUMP JUMPDEST PUSH1 0x40 MLOAD PUSH2 0x143 SWAP2 SWAP1 PUSH2 0xF0B JUMP JUMPDEST PUSH1 0x40 MLOAD DUP1 SWAP2 SUB SWAP1 RETURN JUMPDEST PUSH2 0x154 PUSH2 0x372 JUMP JUMPDEST PUSH1 0x40 MLOAD PUSH2 0x161 SWAP2 SWAP1 PUSH2 0xF3E JUMP JUMPDEST PUSH1 0x40 MLOAD DUP1 SWAP2 SUB SWAP1 RETURN JUMPDEST PUSH2 0x184 PUSH1 0x4 DUP1 CALLDATASIZE SUB DUP2 ADD SWAP1 PUSH2 0x17F SWAP2 SWAP1 PUSH2 0xFB8 JUMP JUMPDEST PUSH2 0x385 JUMP JUMPDEST STOP JUMPDEST PUSH2 0x18E PUSH2 0x5E2 JUMP JUMPDEST PUSH1 0x40 MLOAD PUSH2 0x19B SWAP2 SWAP1 PUSH2 0xF3E JUMP JUMPDEST PUSH1 0x40 MLOAD DUP1 SWAP2 SUB SWAP1 RETURN JUMPDEST PUSH2 0x1BE PUSH1 0x4 DUP1 CALLDATASIZE SUB DUP2 ADD SWAP1 PUSH2 0x1B9 SWAP2 SWAP1 PUSH2 0xFB8 JUMP JUMPDEST PUSH2 0x5F4 JUMP JUMPDEST PUSH1 0x40 MLOAD PUSH2 0x1CB SWAP2 SWAP1 PUSH2 0x1005 JUMP JUMPDEST PUSH1 0x40 MLOAD DUP1 SWAP2 SUB SWAP1 RETURN JUMPDEST PUSH2 0x1DC PUSH2 0x626 JUMP JUMPDEST STOP JUMPDEST PUSH2 0x1E6 PUSH2 0x8A5 JUMP JUMPDEST PUSH1 0x40 MLOAD PUSH2 0x1F3 SWAP2 SWAP1 PUSH2 0x105D JUMP JUMPDEST PUSH1 0x40 MLOAD DUP1 SWAP2 SUB SWAP1 RETURN JUMPDEST PUSH2 0x204 PUSH2 0x8CA JUMP JUMPDEST PUSH1 0x40 MLOAD PUSH2 0x211 SWAP2 SWAP1 PUSH2 0xF0B JUMP JUMPDEST PUSH1 0x40 MLOAD DUP1 SWAP2 SUB SWAP1 RETURN JUMPDEST PUSH2 0x222 PUSH2 0x8CE JUMP JUMPDEST PUSH1 0x40 MLOAD PUSH2 0x22F SWAP2 SWAP1 PUSH2 0xF0B JUMP JUMPDEST PUSH1 0x40 MLOAD DUP1 SWAP2 SUB SWAP1 RETURN JUMPDEST PUSH2 0x240 PUSH2 0x8D3 JUMP JUMPDEST PUSH1 0x40 MLOAD PUSH2 0x24D SWAP2 SWAP1 PUSH2 0x105D JUMP JUMPDEST PUSH1 0x40 MLOAD DUP1 SWAP2 SUB SWAP1 RETURN JUMPDEST PUSH2 0x25E PUSH2 0x8F8 JUMP JUMPDEST STOP JUMPDEST PUSH2 0x268 PUSH2 0xA08 JUMP JUMPDEST PUSH1 0x40 MLOAD PUSH2 0x275 SWAP2 SWAP1 PUSH2 0xF0B JUMP JUMPDEST PUSH1 0x40 MLOAD DUP1 SWAP2 SUB SWAP1 RETURN JUMPDEST PUSH2 0x286 PUSH2 0xA0D JUMP JUMPDEST PUSH1 0x40 MLOAD PUSH2 0x293 SWAP2 SWAP1 PUSH2 0xF0B JUMP JUMPDEST PUSH1 0x40 MLOAD DUP1 SWAP2 SUB SWAP1 RETURN JUMPDEST PUSH2 0x2A4 PUSH2 0xA13 JUMP JUMPDEST PUSH1 0x40 MLOAD PUSH2 0x2B1 SWAP2 SWAP1 PUSH2 0xF3E JUMP JUMPDEST PUSH1 0x40 MLOAD DUP1 SWAP2 SUB SWAP1 RETURN JUMPDEST PUSH2 0x2C2 PUSH2 0xA25 JUMP JUMPDEST PUSH1 0x40 MLOAD PUSH2 0x2CF SWAP2 SWAP1 PUSH2 0x105D JUMP JUMPDEST PUSH1 0x40 MLOAD DUP1 SWAP2 SUB SWAP1 RETURN JUMPDEST PUSH2 0x2E0 PUSH2 0xA4B JUMP JUMPDEST PUSH1 0x40 MLOAD PUSH2 0x2ED SWAP2 SWAP1 PUSH2 0xF3E JUMP JUMPDEST PUSH1 0x40 MLOAD DUP1 SWAP2 SUB SWAP1 RETURN JUMPDEST PUSH2 0x2FE PUSH2 0xA5E JUMP JUMPDEST PUSH1 0x40 MLOAD PUSH2 0x30B SWAP2 SWAP1 PUSH2 0xF0B JUMP JUMPDEST PUSH1 0x40 MLOAD DUP1 SWAP2 SUB SWAP1 RETURN JUMPDEST PUSH2 0x31C PUSH2 0xA63 JUMP JUMPDEST PUSH1 0x40 MLOAD PUSH2 0x329 SWAP2 SWAP1 PUSH2 0xF0B JUMP JUMPDEST PUSH1 0x40 MLOAD DUP1 SWAP2 SUB SWAP1 RETURN JUMPDEST PUSH2 0x33A PUSH2 0xA69 JUMP JUMPDEST PUSH1 0x40 MLOAD PUSH2 0x347 SWAP2 SWAP1 PUSH2 0xF3E JUMP JUMPDEST PUSH1 0x40 MLOAD DUP1 SWAP2 SUB SWAP1 RETURN JUMPDEST PUSH2 0x36A PUSH1 0x4 DUP1 CALLDATASIZE SUB DUP2 ADD SWAP1 PUSH2 0x365 SWAP2 SWAP1 PUSH2 0x1076 JUMP JUMPDEST PUSH2 0xA7C JUMP JUMPDEST STOP JUMPDEST PUSH1 0x4 SLOAD DUP2 JUMP JUMPDEST PUSH1 0x8 PUSH1 0x1 SWAP1 SLOAD SWAP1 PUSH2 0x100 EXP SWAP1 DIV PUSH1 0xFF AND DUP2 JUMP JUMPDEST PUSH1 0x1 SLOAD TIMESTAMP GT ISZERO DUP1 ISZERO PUSH2 0x3AF JUMPI POP PUSH1 0xB PUSH1 0x2 SWAP1 SLOAD SWAP1 PUSH2 0x100 EXP SWAP1 DIV PUSH1 0xFF AND DUP1 PUSH2 0x3AE JUMPI POP PUSH0 SLOAD TIMESTAMP LT ISZERO JUMPDEST JUMPDEST PUSH2 0x3EE JUMPI PUSH1 0x40 MLOAD PUSH32 0x8C379A000000000000000000000000000000000000000000000000000000000 DUP2 MSTORE PUSH1 0x4 ADD PUSH2 0x3E5 SWAP1 PUSH2 0x10FB JUMP JUMPDEST PUSH1 0x40 MLOAD DUP1 SWAP2 SUB SWAP1 REVERT JUMPDEST PUSH1 0x5 PUSH0 SWAP1 SLOAD SWAP1 PUSH2 0x100 EXP SWAP1 DIV PUSH20 0xFFFFFFFFFFFFFFFFFFFFFFFFFFFFFFFFFFFFFFFF AND PUSH20 0xFFFFFFFFFFFFFFFFFFFFFFFFFFFFFFFFFFFFFFFF AND CALLER PUSH20 0xFFFFFFFFFFFFFFFFFFFFFFFFFFFFFFFFFFFFFFFF AND EQ DUP1 ISZERO PUSH2 0x455 JUMPI POP PUSH1 0x8 PUSH0 SWAP1 SLOAD SWAP1 PUSH2 0x100 EXP SWAP1 DIV PUSH1 0xFF AND JUMPDEST ISZERO PUSH2 0x4CC JUMPI DUP2 DUP2 PUSH1 0x40 MLOAD PUSH1 0x20 ADD PUSH2 0x46D SWAP3 SWAP2 SWAP1 PUSH2 0x1159 JUMP JUMPDEST PUSH1 0x40 MLOAD PUSH1 0x20 DUP2 DUP4 SUB SUB DUP2 MSTORE SWAP1 PUSH1 0x40 MSTORE DUP1 MLOAD SWAP1 PUSH1 0x20 ADD KECCAK256 PUSH1 0x6 PUSH0 ADD SLOAD SUB PUSH2 0x4C7 JUMPI DUP2 PUSH1 0x6 PUSH1 0x1 ADD DUP2 SWAP1 SSTORE POP PUSH2 0x4A5 PUSH1 0x6 PUSH1 0x1 ADD SLOAD PUSH2 0xC4A JUMP JUMPDEST ISZERO PUSH2 0x4C6 JUMPI PUSH1 0x1 PUSH1 0x8 PUSH1 0x1 PUSH2 0x100 EXP DUP2 SLOAD DUP2 PUSH1 0xFF MUL NOT AND SWAP1 DUP4 ISZERO ISZERO MUL OR SWAP1 SSTORE POP JUMPDEST JUMPDEST PUSH2 0x5A8 JUMP JUMPDEST PUSH1 0x8 PUSH1 0x2 SWAP1 SLOAD SWAP1 PUSH2 0x100 EXP SWAP1 DIV PUSH20 0xFFFFFFFFFFFFFFFFFFFFFFFFFFFFFFFFFFFFFFFF AND PUSH20 0xFFFFFFFFFFFFFFFFFFFFFFFFFFFFFFFFFFFFFFFF AND CALLER PUSH20 0xFFFFFFFFFFFFFFFFFFFFFFFFFFFFFFFFFFFFFFFF AND EQ DUP1 ISZERO PUSH2 0x534 JUMPI POP PUSH1 0xB PUSH0 SWAP1 SLOAD SWAP1 PUSH2 0x100 EXP SWAP1 DIV PUSH1 0xFF AND JUMPDEST ISZERO PUSH2 0x5A7 JUMPI DUP2 DUP2 PUSH1 0x40 MLOAD PUSH1 0x20 ADD PUSH2 0x54C SWAP3 SWAP2 SWAP1 PUSH2 0x1159 JUMP JUMPDEST PUSH1 0x40 MLOAD PUSH1 0x20 DUP2 DUP4 SUB SUB DUP2 MSTORE SWAP1 PUSH1 0x40 MSTORE DUP1 MLOAD SWAP1 PUSH1 0x20 ADD KECCAK256 PUSH1 0x9 PUSH0 ADD SLOAD SUB PUSH2 0x5A6 JUMPI DUP2 PUSH1 0x9 PUSH1 0x1 ADD DUP2 SWAP1 SSTORE POP PUSH2 0x584 PUSH1 0x9 PUSH1 0x1 ADD SLOAD PUSH2 0xC4A JUMP JUMPDEST ISZERO PUSH2 0x5A5 JUMPI PUSH1 0x1 PUSH1 0xB PUSH1 0x1 PUSH2 0x100 EXP DUP2 SLOAD DUP2 PUSH1 0xFF MUL NOT AND SWAP1 DUP4 ISZERO ISZERO MUL OR SWAP1 SSTORE POP JUMPDEST JUMPDEST JUMPDEST JUMPDEST PUSH1 0x8 PUSH1 0x1 SWAP1 SLOAD SWAP1 PUSH2 0x100 EXP SWAP1 DIV PUSH1 0xFF AND DUP1 ISZERO PUSH2 0x5D0 JUMPI POP PUSH1 0xB PUSH1 0x1 SWAP1 SLOAD SWAP1 PUSH2 0x100 EXP SWAP1 DIV PUSH1 0xFF AND JUMPDEST ISZERO PUSH2 0x5DE JUMPI PUSH2 0x5DD PUSH2 0xC7B JUMP JUMPDEST JUMPDEST POP POP JUMP JUMPDEST PUSH1 0xB PUSH0 SWAP1 SLOAD SWAP1 PUSH2 0x100 EXP SWAP1 DIV PUSH1 0xFF AND DUP2 JUMP JUMPDEST PUSH0 DUP3 DUP3 PUSH1 0x40 MLOAD PUSH1 0x20 ADD PUSH2 0x608 SWAP3 SWAP2 SWAP1 PUSH2 0x1159 JUMP JUMPDEST PUSH1 0x40 MLOAD PUSH1 0x20 DUP2 DUP4 SUB SUB DUP2 MSTORE SWAP1 PUSH1 0x40 MSTORE DUP1 MLOAD SWAP1 PUSH1 0x20 ADD KECCAK256 SWAP1 POP SWAP3 SWAP2 POP POP JUMP JUMPDEST PUSH1 0x1 SLOAD DUP1 TIMESTAMP GT PUSH2 0x66B JUMPI PUSH1 0x40 MLOAD PUSH32 0x8C379A000000000000000000000000000000000000000000000000000000000 DUP2 MSTORE PUSH1 0x4 ADD PUSH2 0x662 SWAP1 PUSH2 0x11CE JUMP JUMPDEST PUSH1 0x40 MLOAD DUP1 SWAP2 SUB SWAP1 REVERT JUMPDEST PUSH1 0x2 SLOAD DUP1 TIMESTAMP LT PUSH2 0x6B0 JUMPI PUSH1 0x40 MLOAD PUSH32 0x8C379A000000000000000000000000000000000000000000000000000000000 DUP2 MSTORE PUSH1 0x4 ADD PUSH2 0x6A7 SWAP1 PUSH2 0x1236 JUMP JUMPDEST PUSH1 0x40 MLOAD DUP1 SWAP2 SUB SWAP1 REVERT JUMPDEST PUSH0 PUSH1 0x5 PUSH0 SWAP1 SLOAD SWAP1 PUSH2 0x100 EXP SWAP1 DIV PUSH20 0xFFFFFFFFFFFFFFFFFFFFFFFFFFFFFFFFFFFFFFFF AND PUSH20 0xFFFFFFFFFFFFFFFFFFFFFFFFFFFFFFFFFFFFFFFF AND CALLER PUSH20 0xFFFFFFFFFFFFFFFFFFFFFFFFFFFFFFFFFFFFFFFF AND EQ DUP1 ISZERO PUSH2 0x719 JUMPI POP PUSH1 0x8 PUSH1 0x1 SWAP1 SLOAD SWAP1 PUSH2 0x100 EXP SWAP1 DIV PUSH1 0xFF AND JUMPDEST ISZERO PUSH2 0x7A9 JUMPI PUSH1 0xB PUSH1 0x1 SWAP1 SLOAD SWAP1 PUSH2 0x100 EXP SWAP1 DIV PUSH1 0xFF AND PUSH2 0x7A4 JUMPI PUSH1 0x4 SLOAD SWAP1 POP PUSH0 PUSH1 0x4 DUP2 SWAP1 SSTORE POP PUSH1 0x5 PUSH0 SWAP1 SLOAD SWAP1 PUSH2 0x100 EXP SWAP1 DIV PUSH20 0xFFFFFFFFFFFFFFFFFFFFFFFFFFFFFFFFFFFFFFFF AND PUSH20 0xFFFFFFFFFFFFFFFFFFFFFFFFFFFFFFFFFFFFFFFF AND PUSH2 0x8FC DUP3 SWAP1 DUP2 ISZERO MUL SWAP1 PUSH1 0x40 MLOAD PUSH0 PUSH1 0x40 MLOAD DUP1 DUP4 SUB DUP2 DUP6 DUP9 DUP9 CALL SWAP4 POP POP POP POP ISZERO DUP1 ISZERO PUSH2 0x7A2 JUMPI RETURNDATASIZE PUSH0 DUP1 RETURNDATACOPY RETURNDATASIZE PUSH0 REVERT JUMPDEST POP JUMPDEST PUSH2 0x8A0 JUMP JUMPDEST PUSH1 0x8 PUSH1 0x2 SWAP1 SLOAD SWAP1 PUSH2 0x100 EXP SWAP1 DIV PUSH20 0xFFFFFFFFFFFFFFFFFFFFFFFFFFFFFFFFFFFFFFFF AND PUSH20 0xFFFFFFFFFFFFFFFFFFFFFFFFFFFFFFFFFFFFFFFF AND CALLER PUSH20 0xFFFFFFFFFFFFFFFFFFFFFFFFFFFFFFFFFFFFFFFF AND EQ DUP1 ISZERO PUSH2 0x812 JUMPI POP PUSH1 0xB PUSH1 0x1 SWAP1 SLOAD SWAP1 PUSH2 0x100 EXP SWAP1 DIV PUSH1 0xFF AND JUMPDEST ISZERO PUSH2 0x89F JUMPI PUSH1 0x8 PUSH1 0x1 SWAP1 SLOAD SWAP1 PUSH2 0x100 EXP SWAP1 DIV PUSH1 0xFF AND PUSH2 0x89E JUMPI PUSH1 0x4 SLOAD SWAP1 POP PUSH0 PUSH1 0x4 DUP2 SWAP1 SSTORE POP PUSH1 0x8 PUSH1 0x2 SWAP1 SLOAD SWAP1 PUSH2 0x100 EXP SWAP1 DIV PUSH20 0xFFFFFFFFFFFFFFFFFFFFFFFFFFFFFFFFFFFFFFFF AND PUSH20 0xFFFFFFFFFFFFFFFFFFFFFFFFFFFFFFFFFFFFFFFF AND PUSH2 0x8FC DUP3 SWAP1 DUP2 ISZERO MUL SWAP1 PUSH1 0x40 MLOAD PUSH0 PUSH1 0x40 MLOAD DUP1 DUP4 SUB DUP2 DUP6 DUP9 DUP9 CALL SWAP4 POP POP POP POP ISZERO DUP1 ISZERO PUSH2 0x89C JUMPI RETURNDATASIZE PUSH0 DUP1 RETURNDATACOPY RETURNDATASIZE PUSH0 REVERT JUMPDEST POP JUMPDEST JUMPDEST JUMPDEST POP POP POP JUMP JUMPDEST PUSH1 0x3 PUSH0 SWAP1 SLOAD SWAP1 PUSH2 0x100 EXP SWAP1 DIV PUSH20 0xFFFFFFFFFFFFFFFFFFFFFFFFFFFFFFFFFFFFFFFF AND DUP2 JUMP JUMPDEST PUSH0 DUP2 JUMP JUMPDEST PUSH1 0x2 DUP2 JUMP JUMPDEST PUSH1 0x5 PUSH0 SWAP1 SLOAD SWAP1 PUSH2 0x100 EXP SWAP1 DIV PUSH20 0xFFFFFFFFFFFFFFFFFFFFFFFFFFFFFFFFFFFFFFFF AND DUP2 JUMP JUMPDEST PUSH1 0x2 SLOAD DUP1 TIMESTAMP GT PUSH2 0x93D JUMPI PUSH1 0x40 MLOAD PUSH32 0x8C379A000000000000000000000000000000000000000000000000000000000 DUP2 MSTORE PUSH1 0x4 ADD PUSH2 0x934 SWAP1 PUSH2 0x11CE JUMP JUMPDEST PUSH1 0x40 MLOAD DUP1 SWAP2 SUB SWAP1 REVERT JUMPDEST PUSH1 0x3 PUSH0 SWAP1 SLOAD SWAP1 PUSH2 0x100 EXP SWAP1 DIV PUSH20 0xFFFFFFFFFFFFFFFFFFFFFFFFFFFFFFFFFFFFFFFF AND PUSH20 0xFFFFFFFFFFFFFFFFFFFFFFFFFFFFFFFFFFFFFFFF AND CALLER PUSH20 0xFFFFFFFFFFFFFFFFFFFFFFFFFFFFFFFFFFFFFFFF AND SUB PUSH2 0xA05 JUMPI PUSH0 PUSH1 0x4 SLOAD SWAP1 POP PUSH0 PUSH1 0x4 DUP2 SWAP1 SSTORE POP PUSH1 0x3 PUSH0 SWAP1 SLOAD SWAP1 PUSH2 0x100 EXP SWAP1 DIV PUSH20 0xFFFFFFFFFFFFFFFFFFFFFFFFFFFFFFFFFFFFFFFF AND PUSH20 0xFFFFFFFFFFFFFFFFFFFFFFFFFFFFFFFFFFFFFFFF AND PUSH2 0x8FC DUP3 SWAP1 DUP2 ISZERO MUL SWAP1 PUSH1 0x40 MLOAD PUSH0 PUSH1 0x40 MLOAD DUP1 DUP4 SUB DUP2 DUP6 DUP9 DUP9 CALL SWAP4 POP POP POP POP ISZERO DUP1 ISZERO PUSH2 0xA02 JUMPI RETURNDATASIZE PUSH0 DUP1 RETURNDATACOPY RETURNDATASIZE PUSH0 REVERT JUMPDEST POP POP JUMPDEST POP JUMP JUMPDEST PUSH1 0x1 DUP2 JUMP JUMPDEST PUSH1 0x1 SLOAD DUP2 JUMP JUMPDEST PUSH1 0x8 PUSH0 SWAP1 SLOAD SWAP1 PUSH2 0x100 EXP SWAP1 DIV PUSH1 0xFF AND DUP2 JUMP JUMPDEST PUSH1 0x8 PUSH1 0x2 SWAP1 SLOAD SWAP1 PUSH2 0x100 EXP SWAP1 DIV PUSH20 0xFFFFFFFFFFFFFFFFFFFFFFFFFFFFFFFFFFFFFFFF AND DUP2 JUMP JUMPDEST PUSH1 0xB PUSH1 0x2 SWAP1 SLOAD SWAP1 PUSH2 0x100 EXP SWAP1 DIV PUSH1 0xFF AND DUP2 JUMP JUMPDEST PUSH0 SLOAD DUP2 JUMP JUMPDEST PUSH1 0x2 SLOAD DUP2 JUMP JUMPDEST PUSH1 0xB PUSH1 0x1 SWAP1 SLOAD SWAP1 PUSH2 0x100 EXP SWAP1 DIV PUSH1 0xFF AND DUP2 JUMP JUMPDEST PUSH0 SLOAD TIMESTAMP LT ISZERO DUP1 PUSH2 0xA98 JUMPI POP PUSH1 0xB PUSH1 0x2 SWAP1 SLOAD SWAP1 PUSH2 0x100 EXP SWAP1 DIV PUSH1 0xFF AND JUMPDEST ISZERO PUSH2 0xAD8 JUMPI PUSH1 0x40 MLOAD PUSH32 0x8C379A000000000000000000000000000000000000000000000000000000000 DUP2 MSTORE PUSH1 0x4 ADD PUSH2 0xACF SWAP1 PUSH2 0x129E JUMP JUMPDEST PUSH1 0x40 MLOAD DUP1 SWAP2 SUB SWAP1 REVERT JUMPDEST PUSH1 0x5 PUSH0 SWAP1 SLOAD SWAP1 PUSH2 0x100 EXP SWAP1 DIV PUSH20 0xFFFFFFFFFFFFFFFFFFFFFFFFFFFFFFFFFFFFFFFF AND PUSH20 0xFFFFFFFFFFFFFFFFFFFFFFFFFFFFFFFFFFFFFFFF AND CALLER PUSH20 0xFFFFFFFFFFFFFFFFFFFFFFFFFFFFFFFFFFFFFFFF AND EQ DUP1 ISZERO PUSH2 0xB40 JUMPI POP PUSH1 0x8 PUSH0 SWAP1 SLOAD SWAP1 PUSH2 0x100 EXP SWAP1 DIV PUSH1 0xFF AND ISZERO JUMPDEST ISZERO PUSH2 0xB6D JUMPI DUP1 PUSH1 0x6 PUSH0 ADD DUP2 SWAP1 SSTORE POP PUSH1 0x1 PUSH1 0x8 PUSH0 PUSH2 0x100 EXP DUP2 SLOAD DUP2 PUSH1 0xFF MUL NOT AND SWAP1 DUP4 ISZERO ISZERO MUL OR SWAP1 SSTORE POP PUSH2 0xC00 JUMP JUMPDEST PUSH1 0x8 PUSH1 0x2 SWAP1 SLOAD SWAP1 PUSH2 0x100 EXP SWAP1 DIV PUSH20 0xFFFFFFFFFFFFFFFFFFFFFFFFFFFFFFFFFFFFFFFF AND PUSH20 0xFFFFFFFFFFFFFFFFFFFFFFFFFFFFFFFFFFFFFFFF AND CALLER PUSH20 0xFFFFFFFFFFFFFFFFFFFFFFFFFFFFFFFFFFFFFFFF AND EQ DUP1 ISZERO PUSH2 0xBD6 JUMPI POP PUSH1 0xB PUSH0 SWAP1 SLOAD SWAP1 PUSH2 0x100 EXP SWAP1 DIV PUSH1 0xFF AND ISZERO JUMPDEST ISZERO PUSH2 0xBFF JUMPI DUP1 PUSH1 0x9 PUSH0 ADD DUP2 SWAP1 SSTORE POP PUSH1 0x1 PUSH1 0xB PUSH0 PUSH2 0x100 EXP DUP2 SLOAD DUP2 PUSH1 0xFF MUL NOT AND SWAP1 DUP4 ISZERO ISZERO MUL OR SWAP1 SSTORE POP JUMPDEST JUMPDEST PUSH1 0x8 PUSH0 SWAP1 SLOAD SWAP1 PUSH2 0x100 EXP SWAP1 DIV PUSH1 0xFF AND DUP1 ISZERO PUSH2 0xC26 JUMPI POP PUSH1 0xB PUSH0 SWAP1 SLOAD SWAP1 PUSH2 0x100 EXP SWAP1 DIV PUSH1 0xFF AND JUMPDEST ISZERO PUSH2 0xC47 JUMPI PUSH1 0x1 PUSH1 0xB PUSH1 0x2 PUSH2 0x100 EXP DUP2 SLOAD DUP2 PUSH1 0xFF MUL NOT AND SWAP1 DUP4 ISZERO ISZERO MUL OR SWAP1 SSTORE POP JUMPDEST POP JUMP JUMPDEST PUSH0 DUP1 DUP3 EQ DUP1 PUSH2 0xC59 JUMPI POP PUSH1 0x1 DUP3 EQ JUMPDEST DUP1 PUSH2 0xC64 JUMPI POP PUSH1 0x2 DUP3 EQ JUMPDEST ISZERO PUSH2 0xC72 JUMPI PUSH1 0x1 SWAP1 POP PUSH2 0xC76 JUMP JUMPDEST PUSH0 SWAP1 POP JUMPDEST SWAP2 SWAP1 POP JUMP JUMPDEST PUSH0 PUSH2 0xC90 PUSH1 0x6 PUSH1 0x1 ADD SLOAD PUSH1 0x9 PUSH1 0x1 ADD SLOAD PUSH2 0xE83 JUMP JUMPDEST ISZERO PUSH2 0xD7D JUMPI PUSH1 0x2 PUSH1 0x4 SLOAD PUSH2 0xCA4 SWAP2 SWAP1 PUSH2 0x12E9 JUMP JUMPDEST SWAP1 POP PUSH0 PUSH1 0x4 DUP2 SWAP1 SSTORE POP PUSH1 0x5 PUSH0 SWAP1 SLOAD SWAP1 PUSH2 0x100 EXP SWAP1 DIV PUSH20 0xFFFFFFFFFFFFFFFFFFFFFFFFFFFFFFFFFFFFFFFF AND PUSH20 0xFFFFFFFFFFFFFFFFFFFFFFFFFFFFFFFFFFFFFFFF AND PUSH2 0x8FC DUP3 SWAP1 DUP2 ISZERO MUL SWAP1 PUSH1 0x40 MLOAD PUSH0 PUSH1 0x40 MLOAD DUP1 DUP4 SUB DUP2 DUP6 DUP9 DUP9 CALL SWAP4 POP POP POP POP ISZERO DUP1 ISZERO PUSH2 0xD11 JUMPI RETURNDATASIZE PUSH0 DUP1 RETURNDATACOPY RETURNDATASIZE PUSH0 REVERT JUMPDEST POP PUSH1 0x8 PUSH1 0x2 SWAP1 SLOAD SWAP1 PUSH2 0x100 EXP SWAP1 DIV PUSH20 0xFFFFFFFFFFFFFFFFFFFFFFFFFFFFFFFFFFFFFFFF AND PUSH20 0xFFFFFFFFFFFFFFFFFFFFFFFFFFFFFFFFFFFFFFFF AND PUSH2 0x8FC DUP3 SWAP1 DUP2 ISZERO MUL SWAP1 PUSH1 0x40 MLOAD PUSH0 PUSH1 0x40 MLOAD DUP1 DUP4 SUB DUP2 DUP6 DUP9 DUP9 CALL SWAP4 POP POP POP POP ISZERO DUP1 ISZERO PUSH2 0xD77 JUMPI RETURNDATASIZE PUSH0 DUP1 RETURNDATACOPY RETURNDATASIZE PUSH0 REVERT JUMPDEST POP PUSH2 0xE80 JUMP JUMPDEST PUSH2 0xD91 PUSH1 0x6 PUSH1 0x1 ADD SLOAD PUSH1 0x9 PUSH1 0x1 ADD SLOAD PUSH2 0xE9E JUMP JUMPDEST ISZERO PUSH2 0xE0C JUMPI PUSH1 0x4 SLOAD SWAP1 POP PUSH0 PUSH1 0x4 DUP2 SWAP1 SSTORE POP PUSH1 0x5 PUSH0 SWAP1 SLOAD SWAP1 PUSH2 0x100 EXP SWAP1 DIV PUSH20 0xFFFFFFFFFFFFFFFFFFFFFFFFFFFFFFFFFFFFFFFF AND PUSH20 0xFFFFFFFFFFFFFFFFFFFFFFFFFFFFFFFFFFFFFFFF AND PUSH2 0x8FC DUP3 SWAP1 DUP2 ISZERO MUL SWAP1 PUSH1 0x40 MLOAD PUSH0 PUSH1 0x40 MLOAD DUP1 DUP4 SUB DUP2 DUP6 DUP9 DUP9 CALL SWAP4 POP POP POP POP ISZERO DUP1 ISZERO PUSH2 0xE06 JUMPI RETURNDATASIZE PUSH0 DUP1 RETURNDATACOPY RETURNDATASIZE PUSH0 REVERT JUMPDEST POP PUSH2 0xE7F JUMP JUMPDEST PUSH1 0x4 SLOAD SWAP1 POP PUSH0 PUSH1 0x4 DUP2 SWAP1 SSTORE POP PUSH1 0x8 PUSH1 0x2 SWAP1 SLOAD SWAP1 PUSH2 0x100 EXP SWAP1 DIV PUSH20 0xFFFFFFFFFFFFFFFFFFFFFFFFFFFFFFFFFFFFFFFF AND PUSH20 0xFFFFFFFFFFFFFFFFFFFFFFFFFFFFFFFFFFFFFFFF AND PUSH2 0x8FC DUP3 SWAP1 DUP2 ISZERO MUL SWAP1 PUSH1 0x40 MLOAD PUSH0 PUSH1 0x40 MLOAD DUP1 DUP4 SUB DUP2 DUP6 DUP9 DUP9 CALL SWAP4 POP POP POP POP ISZERO DUP1 ISZERO PUSH2 0xE7D JUMPI RETURNDATASIZE PUSH0 DUP1 RETURNDATACOPY RETURNDATASIZE PUSH0 REVERT JUMPDEST POP JUMPDEST JUMPDEST POP JUMP JUMPDEST PUSH0 DUP2 DUP4 SUB PUSH2 0xE94 JUMPI PUSH1 0x1 SWAP1 POP PUSH2 0xE98 JUMP JUMPDEST PUSH0 SWAP1 POP JUMPDEST SWAP3 SWAP2 POP POP JUMP JUMPDEST PUSH0 DUP1 DUP4 EQ DUP1 ISZERO PUSH2 0xEAE JUMPI POP PUSH1 0x2 DUP3 EQ JUMPDEST DUP1 PUSH2 0xEC4 JUMPI POP PUSH1 0x1 DUP4 EQ DUP1 ISZERO PUSH2 0xEC3 JUMPI POP PUSH0 DUP3 EQ JUMPDEST JUMPDEST DUP1 PUSH2 0xEDB JUMPI POP PUSH1 0x2 DUP4 EQ DUP1 ISZERO PUSH2 0xEDA JUMPI POP PUSH1 0x1 DUP3 EQ JUMPDEST JUMPDEST ISZERO PUSH2 0xEE9 JUMPI PUSH1 0x1 SWAP1 POP PUSH2 0xEED JUMP JUMPDEST PUSH0 SWAP1 POP JUMPDEST SWAP3 SWAP2 POP POP JUMP JUMPDEST PUSH0 DUP2 SWAP1 POP SWAP2 SWAP1 POP JUMP JUMPDEST PUSH2 0xF05 DUP2 PUSH2 0xEF3 JUMP JUMPDEST DUP3 MSTORE POP POP JUMP JUMPDEST PUSH0 PUSH1 0x20 DUP3 ADD SWAP1 POP PUSH2 0xF1E PUSH0 DUP4 ADD DUP5 PUSH2 0xEFC JUMP JUMPDEST SWAP3 SWAP2 POP POP JUMP JUMPDEST PUSH0 DUP2 ISZERO ISZERO SWAP1 POP SWAP2 SWAP1 POP JUMP JUMPDEST PUSH2 0xF38 DUP2 PUSH2 0xF24 JUMP JUMPDEST DUP3 MSTORE POP POP JUMP JUMPDEST PUSH0 PUSH1 0x20 DUP3 ADD SWAP1 POP PUSH2 0xF51 PUSH0 DUP4 ADD DUP5 PUSH2 0xF2F JUMP JUMPDEST SWAP3 SWAP2 POP POP JUMP JUMPDEST PUSH0 DUP1 REVERT JUMPDEST PUSH2 0xF64 DUP2 PUSH2 0xEF3 JUMP JUMPDEST DUP2 EQ PUSH2 0xF6E JUMPI PUSH0 DUP1 REVERT JUMPDEST POP JUMP JUMPDEST PUSH0 DUP2 CALLDATALOAD SWAP1 POP PUSH2 0xF7F DUP2 PUSH2 0xF5B JUMP JUMPDEST SWAP3 SWAP2 POP POP JUMP JUMPDEST PUSH0 DUP2 SWAP1 POP SWAP2 SWAP1 POP JUMP JUMPDEST PUSH2 0xF97 DUP2 PUSH2 0xF85 JUMP JUMPDEST DUP2 EQ PUSH2 0xFA1 JUMPI PUSH0 DUP1 REVERT JUMPDEST POP JUMP JUMPDEST PUSH0 DUP2 CALLDATALOAD SWAP1 POP PUSH2 0xFB2 DUP2 PUSH2 0xF8E JUMP JUMPDEST SWAP3 SWAP2 POP POP JUMP JUMPDEST PUSH0 DUP1 PUSH1 0x40 DUP4 DUP6 SUB SLT ISZERO PUSH2 0xFCE JUMPI PUSH2 0xFCD PUSH2 0xF57 JUMP JUMPDEST JUMPDEST PUSH0 PUSH2 0xFDB DUP6 DUP3 DUP7 ADD PUSH2 0xF71 JUMP JUMPDEST SWAP3 POP POP PUSH1 0x20 PUSH2 0xFEC DUP6 DUP3 DUP7 ADD PUSH2 0xFA4 JUMP JUMPDEST SWAP2 POP POP SWAP3 POP SWAP3 SWAP1 POP JUMP JUMPDEST PUSH2 0xFFF DUP2 PUSH2 0xF85 JUMP JUMPDEST DUP3 MSTORE POP POP JUMP JUMPDEST PUSH0 PUSH1 0x20 DUP3 ADD SWAP1 POP PUSH2 0x1018 PUSH0 DUP4 ADD DUP5 PUSH2 0xFF6 JUMP JUMPDEST SWAP3 SWAP2 POP POP JUMP JUMPDEST PUSH0 PUSH20 0xFFFFFFFFFFFFFFFFFFFFFFFFFFFFFFFFFFFFFFFF DUP3 AND SWAP1 POP SWAP2 SWAP1 POP JUMP JUMPDEST PUSH0 PUSH2 0x1047 DUP3 PUSH2 0x101E JUMP JUMPDEST SWAP1 POP SWAP2 SWAP1 POP JUMP JUMPDEST PUSH2 0x1057 DUP2 PUSH2 0x103D JUMP JUMPDEST DUP3 MSTORE POP POP JUMP JUMPDEST PUSH0 PUSH1 0x20 DUP3 ADD SWAP1 POP PUSH2 0x1070 PUSH0 DUP4 ADD DUP5 PUSH2 0x104E JUMP JUMPDEST SWAP3 SWAP2 POP POP JUMP JUMPDEST PUSH0 PUSH1 0x20 DUP3 DUP5 SUB SLT ISZERO PUSH2 0x108B JUMPI PUSH2 0x108A PUSH2 0xF57 JUMP JUMPDEST JUMPDEST PUSH0 PUSH2 0x1098 DUP5 DUP3 DUP6 ADD PUSH2 0xFA4 JUMP JUMPDEST SWAP2 POP POP SWAP3 SWAP2 POP POP JUMP JUMPDEST PUSH0 DUP3 DUP3 MSTORE PUSH1 0x20 DUP3 ADD SWAP1 POP SWAP3 SWAP2 POP POP JUMP JUMPDEST PUSH32 0x4E6F742052657665616C20506861736521000000000000000000000000000000 PUSH0 DUP3 ADD MSTORE POP JUMP JUMPDEST PUSH0 PUSH2 0x10E5 PUSH1 0x11 DUP4 PUSH2 0x10A1 JUMP JUMPDEST SWAP2 POP PUSH2 0x10F0 DUP3 PUSH2 0x10B1 JUMP JUMPDEST PUSH1 0x20 DUP3 ADD SWAP1 POP SWAP2 SWAP1 POP JUMP JUMPDEST PUSH0 PUSH1 0x20 DUP3 ADD SWAP1 POP DUP2 DUP2 SUB PUSH0 DUP4 ADD MSTORE PUSH2 0x1112 DUP2 PUSH2 0x10D9 JUMP JUMPDEST SWAP1 POP SWAP2 SWAP1 POP JUMP JUMPDEST PUSH0 DUP2 SWAP1 POP SWAP2 SWAP1 POP JUMP JUMPDEST PUSH2 0x1133 PUSH2 0x112E DUP3 PUSH2 0xEF3 JUMP JUMPDEST PUSH2 0x1119 JUMP JUMPDEST DUP3 MSTORE POP POP JUMP JUMPDEST PUSH0 DUP2 SWAP1 POP SWAP2 SWAP1 POP JUMP JUMPDEST PUSH2 0x1153 PUSH2 0x114E DUP3 PUSH2 0xF85 JUMP JUMPDEST PUSH2 0x1139 JUMP JUMPDEST DUP3 MSTORE POP POP JUMP JUMPDEST PUSH0 PUSH2 0x1164 DUP3 DUP6 PUSH2 0x1122 JUMP JUMPDEST PUSH1 0x20 DUP3 ADD SWAP2 POP PUSH2 0x1174 DUP3 DUP5 PUSH2 0x1142 JUMP JUMPDEST PUSH1 0x20 DUP3 ADD SWAP2 POP DUP2 SWAP1 POP SWAP4 SWAP3 POP POP POP JUMP JUMPDEST PUSH32 0x546F6F204561726C792100000000000000000000000000000000000000000000 PUSH0 DUP3 ADD MSTORE POP JUMP JUMPDEST PUSH0 PUSH2 0x11B8 PUSH1 0xA DUP4 PUSH2 0x10A1 JUMP JUMPDEST SWAP2 POP PUSH2 0x11C3 DUP3 PUSH2 0x1184 JUMP JUMPDEST PUSH1 0x20 DUP3 ADD SWAP1 POP SWAP2 SWAP1 POP JUMP JUMPDEST PUSH0 PUSH1 0x20 DUP3 ADD SWAP1 POP DUP2 DUP2 SUB PUSH0 DUP4 ADD MSTORE PUSH2 0x11E5 DUP2 PUSH2 0x11AC JUMP JUMPDEST SWAP1 POP SWAP2 SWAP1 POP JUMP JUMPDEST PUSH32 0x546F6F204C617465210000000000000000000000000000000000000000000000 PUSH0 DUP3 ADD MSTORE POP JUMP JUMPDEST PUSH0 PUSH2 0x1220 PUSH1 0x9 DUP4 PUSH2 0x10A1 JUMP JUMPDEST SWAP2 POP PUSH2 0x122B DUP3 PUSH2 0x11EC JUMP JUMPDEST PUSH1 0x20 DUP3 ADD SWAP1 POP SWAP2 SWAP1 POP JUMP JUMPDEST PUSH0 PUSH1 0x20 DUP3 ADD SWAP1 POP DUP2 DUP2 SUB PUSH0 DUP4 ADD MSTORE PUSH2 0x124D DUP2 PUSH2 0x1214 JUMP JUMPDEST SWAP1 POP SWAP2 SWAP1 POP JUMP JUMPDEST PUSH32 0x4E6F7420416374696F6E20506861736521000000000000000000000000000000 PUSH0 DUP3 ADD MSTORE POP JUMP JUMPDEST PUSH0 PUSH2 0x1288 PUSH1 0x11 DUP4 PUSH2 0x10A1 JUMP JUMPDEST SWAP2 POP PUSH2 0x1293 DUP3 PUSH2 0x1254 JUMP JUMPDEST PUSH1 0x20 DUP3 ADD SWAP1 POP SWAP2 SWAP1 POP JUMP JUMPDEST PUSH0 PUSH1 0x20 DUP3 ADD SWAP1 POP DUP2 DUP2 SUB PUSH0 DUP4 ADD MSTORE PUSH2 0x12B5 DUP2 PUSH2 0x127C JUMP JUMPDEST SWAP1 POP SWAP2 SWAP1 POP JUMP JUMPDEST PUSH32 0x4E487B7100000000000000000000000000000000000000000000000000000000 PUSH0 MSTORE PUSH1 0x12 PUSH1 0x4 MSTORE PUSH1 0x24 PUSH0 REVERT JUMPDEST PUSH0 PUSH2 0x12F3 DUP3 PUSH2 0xEF3 JUMP JUMPDEST SWAP2 POP PUSH2 0x12FE DUP4 PUSH2 0xEF3 JUMP JUMPDEST SWAP3 POP DUP3 PUSH2 0x130E JUMPI PUSH2 0x130D PUSH2 0x12BC JUMP JUMPDEST JUMPDEST DUP3 DUP3 DIV SWAP1 POP SWAP3 SWAP2 POP POP JUMP INVALID LOG2 PUSH5 0x6970667358 0x22 SLT KECCAK256 0x4D RETURNDATACOPY MOD 0xDA PUSH7 0xCBFECB5A6CF859 0x49 0x4A 0x5C DUP13 MSIZE PUSH9 0x52DC24D55D4E3690 0xDF SLOAD 0xA6 0x5E STOP PUSH5 0x736F6C6343 STOP ADDMOD AND STOP CALLER "
				},
				"gasEstimates": {
					"creation": {
						"codeDepositCost": "988600",
						"executionCost": "infinite",
						"totalCost": "infinite"
					},
					"external": {
						"P()": "370",
						"R()": "391",
						"S()": "414",
						"bindEnd()": "2468",
						"manager()": "2553",
						"player_1()": "2619",
						"player_2()": "2670",
						"retrieveReward()": "infinite",
						"revealAction(uint256,bytes32)": "infinite",
						"revealEnd()": "2492",
						"reveal_phase()": "2539",
						"revealed_1()": "2563",
						"revealed_2()": "2605",
						"reward()": "2449",
						"sendAction(bytes32)": "88585",
						"sent_1()": "2555",
						"sent_2()": "2556",
						"test(uint256,bytes32)": "infinite",
						"withdraw()": "infinite",
						"withdrawEnd()": "2491"
					},
					"internal": {
						"computeWinner()": "infinite",
						"isDraw(uint256,uint256)": "63",
						"isWinner(uint256,uint256)": "214",
						"validateAction(uint256)": "120"
					}
				},
				"methodIdentifiers": {
					"P()": "8b8fbd92",
					"R()": "4980e1be",
					"S()": "4be1c796",
					"bindEnd()": "d0b9546c",
					"manager()": "481c6a75",
					"player_1()": "614fc508",
					"player_2()": "b1ed37b1",
					"retrieveReward()": "6b423f38",
					"revealAction(uint256,bytes32)": "2a9a8241",
					"revealEnd()": "a6e66477",
					"reveal_phase()": "c6e1d48c",
					"revealed_1()": "23f790ce",
					"revealed_2()": "edbbd5c6",
					"reward()": "228cb733",
					"sendAction(bytes32)": "fba23d2a",
					"sent_1()": "afbf7f18",
					"sent_2()": "2c6c0055",
					"test(uint256,bytes32)": "337ee418",
					"withdraw()": "3ccfd60b",
					"withdrawEnd()": "d6edbc0f"
				}
			},
			"storageLayout": {
				"storage": [
					{
						"astId": 17,
						"contract": "RockPaperScissors_game.sol:RockPaperScissors",
						"label": "bindEnd",
						"offset": 0,
						"slot": "0",
						"type": "t_uint256"
					},
					{
						"astId": 19,
						"contract": "RockPaperScissors_game.sol:RockPaperScissors",
						"label": "revealEnd",
						"offset": 0,
						"slot": "1",
						"type": "t_uint256"
					},
					{
						"astId": 21,
						"contract": "RockPaperScissors_game.sol:RockPaperScissors",
						"label": "withdrawEnd",
						"offset": 0,
						"slot": "2",
						"type": "t_uint256"
					},
					{
						"astId": 23,
						"contract": "RockPaperScissors_game.sol:RockPaperScissors",
						"label": "manager",
						"offset": 0,
						"slot": "3",
						"type": "t_address_payable"
					},
					{
						"astId": 25,
						"contract": "RockPaperScissors_game.sol:RockPaperScissors",
						"label": "reward",
						"offset": 0,
						"slot": "4",
						"type": "t_uint256"
					},
					{
						"astId": 27,
						"contract": "RockPaperScissors_game.sol:RockPaperScissors",
						"label": "player_1",
						"offset": 0,
						"slot": "5",
						"type": "t_address_payable"
					},
					{
						"astId": 30,
						"contract": "RockPaperScissors_game.sol:RockPaperScissors",
						"label": "action_1",
						"offset": 0,
						"slot": "6",
						"type": "t_struct(action)6_storage"
					},
					{
						"astId": 32,
						"contract": "RockPaperScissors_game.sol:RockPaperScissors",
						"label": "sent_1",
						"offset": 0,
						"slot": "8",
						"type": "t_bool"
					},
					{
						"astId": 34,
						"contract": "RockPaperScissors_game.sol:RockPaperScissors",
						"label": "revealed_1",
						"offset": 1,
						"slot": "8",
						"type": "t_bool"
					},
					{
						"astId": 36,
						"contract": "RockPaperScissors_game.sol:RockPaperScissors",
						"label": "player_2",
						"offset": 2,
						"slot": "8",
						"type": "t_address_payable"
					},
					{
						"astId": 39,
						"contract": "RockPaperScissors_game.sol:RockPaperScissors",
						"label": "action_2",
						"offset": 0,
						"slot": "9",
						"type": "t_struct(action)6_storage"
					},
					{
						"astId": 41,
						"contract": "RockPaperScissors_game.sol:RockPaperScissors",
						"label": "sent_2",
						"offset": 0,
						"slot": "11",
						"type": "t_bool"
					},
					{
						"astId": 43,
						"contract": "RockPaperScissors_game.sol:RockPaperScissors",
						"label": "revealed_2",
						"offset": 1,
						"slot": "11",
						"type": "t_bool"
					},
					{
						"astId": 45,
						"contract": "RockPaperScissors_game.sol:RockPaperScissors",
						"label": "reveal_phase",
						"offset": 2,
						"slot": "11",
						"type": "t_bool"
					}
				],
				"types": {
					"t_address_payable": {
						"encoding": "inplace",
						"label": "address payable",
						"numberOfBytes": "20"
					},
					"t_bool": {
						"encoding": "inplace",
						"label": "bool",
						"numberOfBytes": "1"
					},
					"t_bytes32": {
						"encoding": "inplace",
						"label": "bytes32",
						"numberOfBytes": "32"
					},
					"t_struct(action)6_storage": {
						"encoding": "inplace",
						"label": "struct RockPaperScissors.action",
						"members": [
							{
								"astId": 3,
								"contract": "RockPaperScissors_game.sol:RockPaperScissors",
								"label": "hiddenAction",
								"offset": 0,
								"slot": "0",
								"type": "t_bytes32"
							},
							{
								"astId": 5,
								"contract": "RockPaperScissors_game.sol:RockPaperScissors",
								"label": "action",
								"offset": 0,
								"slot": "1",
								"type": "t_uint256"
							}
						],
						"numberOfBytes": "64"
					},
					"t_uint256": {
						"encoding": "inplace",
						"label": "uint256",
						"numberOfBytes": "32"
					}
				}
			},
			"userdoc": {
				"kind": "user",
				"methods": {},
				"version": 1
			}
		}
	}
}